:040000006F2020311C
:100004000000000000000000080200000A020000D6
:1000140000000000102300000000000000000000A9
:100024001023000010230000000000000000000066
:100034001023000000000000102300000000000056
:1000440010230000102300001023000010230000E0
:1000540010230000102300001023000010230000D0
:10006400102300001023000010230000A002000051
:10007400B4020000CA020000E2020000F60200001E
:100084000C0300002203000010230000280A0000D3
:100094008E0A00001023000010230000102300002B
:1000A4001023000010230000102300001023000080
:1000B4001023000010230000102300001023000070
:1000C4001023000010230000102300001023000060
:1000D4001023000010230000102300001023000050
:1000E4001023000010230000440C00001023000023
:0C00F4001023000010230000380300005F
:10010000397101436EC619A0397141536AC866CA74
:1001100062CC5ECE19A0397101535AD056D252D456
:100120004ED64AD826DA22DC06DE330161408282CE
:1001300041114AC026C222C406C68282B24D410184
:10014000024D924C224CB24B4101024B924A224A40
:10015000B2494101024992442244B24041018280A5
:100160003D432A876373C3029377F700BDEFADE584
:10017000937606FF3D8ABA960CC34CC30CC74CC796
:100180004107E36BD7FE11E28280B306C3408A06C3
:100190009702000096966780A6002307B700A30683
:1001A000B7002306B700A305B7002305B700A304D3
:1001B000B7002304B700A303B7002303B700A302CB
:1001C000B7002302B700A301B7002301B700A300C3
:1001D000B7002300B700828093F5F50F9396850052
:1001E000D58D93960501D58D61B79396270097021B
:1001F000000096968682E78086FA9680C1171D8F4A
:100200003E96E374C3F8A5B701A001A0EFF25FF238
:10021000792EB7177A00938707203355F5021375A7
:10022000F50F2385A1829307803E3305F5022394C1
:10023000A1820DB7B7F700E0D8438146799BD8C3B8
:1002400003C7A1823306A70290CBD4CB9843136790
:10025000070198C398431367170298C3D843058BC7
:1002600075DF9843799B98C38280B7F700E0D84345
:100270008146799BD8C303D781823306A70290CBEE
:10028000D4CB98431367070198C3984313671702A9
:1002900098C3D843058B75DF9843799B98C38280B8
:1002A00083A7C18291C38297B70702403D47D8C355
:1002B0007300203083A7018391C38297B707024060
:1002C0001307000FD8C37300203083A7418391C365
:1002D0008297856737070240938707F05CC37300F6
:1002E000203083A7818391C38297B70702403D677F
:1002F000D8C37300203083A7C18391C38297B70707
:10030000024037070F00D8C37300203083A7018451
:1003100091C38297B70702403707F000D8C3730034
:10032000203083A7418491C38297B70702403707E3
:10033000000FD8C37300203083A7818491C38297B4
:10034000B7070240370700F0D8C373002030B70763
:1003500002407D57D8C3B7E700E03707000823A065
:10036000E7103707001023A0E7103707002023A06D
:10037000E7103707004023A0E710B706008023A04E
:10038000D710854623A2D710894623A2D71023A2CF
:10039000E71082801C41F99B1CC14CC510C554C19B
:1003A0001C4193E717001CC182802E87A147BD46E0
:1003B00013781600630008028328050013C8F6FFAF
:1003C0003378180123200501032805003368E8006D
:1003D00023200501FD1793F7F70F920612070582F8
:1003E000E1FBA1473D479376160099CA03284500D3
:1003F0009346F7FFB3F6060154C15441CD8E54C164
:10040000FD1793F7F70F120792050582E9FF828027
:10041000B71702409843C176FD16758F98C398436D
:10042000B706F4FFFD16758F98C39843C166598DC2
:1004300088C39843558F98C3856737170240144384
:100440001396E60063460600FD17C207C183E5FB6D
:10045000B71702408843458105898280B71702405B
:100460009843B70600FFFD16758F98C3D843B706AB
:10047000C1FFFD16758FD8C3D843B7060001598D4B
:10048000C8C39843558F98C3371702401C439396AF
:100490006700E3DD06FE8280EFF29FC93714024059
:1004A0001C4037C73FF8310793E717001CC05C407A
:1004B0000145F98F5CC01C40370700FF7D17F98F9D
:1004C0001CC0374702408327078093E7070123209A
:1004D000F780B7071F001CC4253F25C15C4071771A
:1004E0001307F77F93F7F7F05CC05C4037052900EE
:1004F00093F7F78F93E707405CC05C40F98F5CC0CF
:100500005C403167D98F5CC05C40370740FF7D1786
:10051000F98F37074000D98F5CC089375C40A1460E
:10052000F19B93E727005CC0B7170240D843318B9B
:10053000E31ED7FE9843799B98C329B93717024029
:100540005C439146B18B638FD704A1466385D70086
:10055000B1CB014582804843454749813D89930796
:1005600025006393E700C9473717024054431396A9
:10057000F600635C060058439316E70063DD06004F
:1005800037153D001305059019A83747024003278A
:100590000780418B75D737157A0013050520330581
:1005A000F502828037157A00130505208280EFF26C
:1005B0003FB86937B7170240DC430147918393F690
:1005C000870089CA93F67700918B1387160099C329
:1005D000138726003355E500B5BEEFF27FB5C13F66
:1005E000B7170240DC430147A18393F6470081C659
:1005F0008D8B138717003355E500A9BEEFF25FB36B
:100600007D37B7170240D44301471396260163573D
:10061000060093D7B6008D8B138717003355E5007E
:1006200015BEEFF2FFB0D93FB7170240DC43B583E8
:10063000998B89073355F50231BE231005009307C6
:1006400040301EA11E21DD8D0EA191475EA1231E0B
:1006500005001E2193E707041EA182804EA51E25DA
:10066000858BF5DF4A2582809385818A9449D2293A
:1006700083D8E5019C4203A885011307F6FFF99B87
:100680009CC2DC4642074187C697B3870741F98F72
:10069000CE2DC207C1839D8D6D8F3E98420723A644
:1006A000060141831385818A15C3B307F6403E8650
:1006B000C207C1836373F7003A8693170601C183AB
:1006C00072ADDCC29C4293E717009CC28280938586
:1006D00081149449D22903D8E5019C42884D13071F
:1006E000F6FFF99B9CC2DC4642074187C297898F7F
:1006F000F98FCE2DC207C1839D8D6D8F3E95420728
:10070000C8C6418305C3B307F6403E86C207C1830E
:100710006373F7003A8642064182D0C29C4293E757
:1007200017009CC28280638A0514EFF2DF9EB744F3
:100730000040938704402E892A84630FF50AB7444A
:100740000140938704806318F50A85671387818ABF
:1007500093870780B7050020370A02405EA393877E
:1007600085121CC713058A05930700089389810C1D
:100770008D6A130B4A045EAB08C393870A0A2316DB
:10078000070023286701232C3701231E07008566F5
:10079000232CFA0413864480938606809385851261
:1007A000938A2A09C53E23225A0523283A059384B1
:1007B0004480B707000023269A049387876623ACFA
:1007C000F182B7470140938707806316F40A3D35ED
:1007D00093171500B3D7270385078583C207C18305
:1007E0001EA49307000C5EA8231804008967231039
:1007F0000400B1075EA491BA8567138781149387BB
:100800000780B7150020370A02405EA3B719002001
:100810009387859C1CC71305CA0693070008938914
:10082000891C8D6A130B0A085EAB08C393870A0AFA
:100830002316070023286701232C3701231E0700F6
:1008400085662326FA0613864440938606809385A0
:10085000859C938A2A093D3E23205A0923263A097A
:1008600093844440B707000023249A089387E76CD9
:1008700023A2F184B9B79533A1BF23160500828066
:100880005A251C45BA978823828011E282808358BA
:1008900045001C410358C500D843B3860841C20631
:1008A000C1829387F8FF3387E6407D8F42074183FB
:1008B000B2876373C700BA87C207C1831D8E420621
:1008C000418263E3D702032E85000147131307011A
:1008D000135303016369D30233081841C297C20757
:1008E000B69523160500C183032885008358C500EB
:1008F000014793160701C18263E2F6025A25BE95AD
:10090000BA975EA559B73303E8007293834E03008C
:100910003383E50005072300D3014DBFB30617015C
:10092000C29603C30600B386E50005072380660070
:10093000C9B711E282801C49562D032E8501DC4780
:100940008358450113C7F6FF3E973307C741938786
:10095000F8FF7D8F42074183B2876373C700BA8770
:10096000C207C1833387D8401D8E420742064183A8
:10097000418263ECE702014819A833830501834EE5
:1009800003003383060172932300D3010508131378
:10099000080113530301E362E3FEB3861641B697E1
:1009A000C207BA95231E0500C18303288501835819
:1009B000C501014793160701C18263ECF6045A2D65
:1009C0001449BE95BA97C207D842C1835EAD35F3CC
:1009D00003A8C600184D33070741035845014207D5
:1009E0004183BA974297C2073A884207C18341833D
:1009F00063F3E7003E889C42231F0501131708019B
:100A0000F99B9CC24183D8C29C4293E717009CC2C9
:100A10000DB7B386E50003C30600B3061701C296FF
:100A200023806600050779B7B7670040411126C4E7
:100A300083D447C422C6138707C4BD88938707C0E1
:100A4000139424003E941E20C207C18763DD070073
:100A500083A7818599C3268582971A208567938706
:100A6000F7F8F98F1EA01E2093F7070881CF83A700
:100A7000418599C3268582971A20E5779387F7F0F9
:100A8000F98F1EA03244A24441017300203041116D
:100A9000B767004083D647C426C483D407C422C6A0
:100AA0004AC2F58C93960401C18663DF060403D91C
:100AB00047C4938707C01379F900131429003E94A3
:100AC0001E20C207C18763D207021E201397470169
:100AD0006357071683A7018699C34A8582971A2010
:100AE00085679387F7F8F98F1EA01E2093F70708F4
:100AF00081CF83A7418599C34A8582971A20E577DC
:100B00009387F7F0F98F1EA09397440163DE0702E5
:100B100037670040835707C493E787002310F7C463
:100B200083A7818691C3829737670040035647C4E5
:100B3000FD779387F77FF18F2312F7C4835707C49C
:100B400093E747002310F7C493F704409DCF37176E
:100B50000020B7670040376400401307872493875D
:100B600007C0930604C2122391070907239EC7FEFC
:100B7000E39BD7FE93070008130404C45EA483A775
:100B8000C18591C382972312040093F7042085CB7B
:100B90001387C1841E238507C207C1831EA383A7B1
:100BA000418691C3829737670040835747C4C20785
:100BB000C18393F7F7DFC207C1832312F7C493F70A
:100BC00004108DC383A7018591C3829737670040C6
:100BD000835747C4C207C18393F7F7EFC207C183A6
:100BE0002312F7C49397340163DA07023767004092
:100BF000835707C4C207C183DD9BC207C18323108B
:100C0000F7C483A7C18691C3829737670040835694
:100C100047C4FD77FD17F58F2312F7C437670040EF
:100C2000835647C4E9773244FD17F58F2312F7C482
:100C3000A2441249130707C441017300203083A75F
:100C4000818559BD37670040835707C4C207C183F8
:100C5000DD9BC207C1832310F7C483A7C18691C35C
:100C6000829737670040835647C4FD77FD17F58F9D
:100C70002312F7C4130707C473002030B76700407E
:100C800085462390D7C4B7150020239807C4AA86A9
:100C900093858524014693070004B76E0040130F27
:100CA00000109308E0036173930F0040214E83D33B
:100CB0000602131806019312460013580801F69213
:100CC0009A226384E301639CF30D69E39A2A9303F8
:100CD0002700C20393D3030163EF78080D07799BC4
:100CE0004207418393139700C20393D303012392D6
:100CF0007200239672002390F200BA97C207C18354
:100D00002394F200BA979A32C20705063368E800C6
:100D100023900501C18389068905E31AC6F937675F
:100D20000040930700082316F7C4B745024083A785
:100D30000580F19B93E7270023A0F580835707C424
:100D4000C207C183F99BC207C1832310F7C42312D2
:100D500007C4835707C41639D58F2310F7C4B7E7E4
:100D600000E023A2C710414723A2E7103707000481
:100D700023A2E710828013071702019B42074183D9
:100D8000930307FE9603B3E36300B9BF0507799B9E
:100D9000420723920200418323960200A9BF050760
:100DA000799B2390F200BA97C20723920200C18375
:100DB0002394F2009A2A93032700C20393D30301DA
:100DC00063EE78000D07799B4207418393139700E8
:100DD000C20393D30301239672002DB713071702A2
:100DE000019B42074183930307FE9603B3E363002D
:100DF000C5B79966B70702409386066DD4CF06053E
:100E0000B76600408CD73695C8D390D3D84FB70675
:100E1000024013671700D8CF98527DFFD84E799BB8
:100E2000D8CE82809966B70702409386066CD4CFED
:100E30000605B76600408CD73695C8D390D3D84FF7
:100E4000B706024013671700D8CF98527DFFD84EDF
:100E5000799BD8CE8280370702009317150071174F
:100E6000F98F0589376700404111BA9709CD9A2358
:100E70007D1642067887982141829107D887388766
:100E80008505239EE7FE050613F7150005861DC799
:100E90004206416741827D177D16420641826314F6
:100EA000E60041018280942191078905548783C619
:100EB000F5FFD4873487239ED7FEF9BF196537071E
:100EC00002401305056D48CF0CD75CD310D35C4F9F
:100ED000B706024093E717005CCF98527DFFD84ECB
:100EE000799BD8CE7DBF3707020093171500711785
:100EF000F98F058937670040BA9709C99A237D168B
:100F00004206218398A1418291078505050613F7C2
:100F10001500058605C74206C1664182FD167D168D
:100F2000420641826313D60082809A238905910785
:100F3000238FE5FE2183A38FE5FED5B7196537071B
:100F400002401305056C48CF0CD75CD310D35C4F1F
:100F5000B706024093E717005CCF98527DFFD84E4A
:100F6000799BD8CE828083D6418783D7C184958FE1
:100F7000C207C183A54663F6F608B767004083D66B
:100F8000C7C0139616016357060083D7C7C093F7EF
:100F9000070491EFB767004083D6C7C013961601C8
:100FA0006341060683D7C7C093F70704B9EB83C72D
:100FB000318993F7F70FB1E793874189942393F62B
:100FC000F60FC9CE938621898C22376600404EBE2B
:100FD000930500048CA2238007008356C6C0F577D2
:100FE0009387F7F8F58F2316F6C0B766004003D64F
:100FF000C6C0E5779387F7FBF18F93C70703239666
:10100000F6C083D7C18403D76187998FC207C18394
:1010100025476370F70237670040A94656AB8356F1
:1010200047C0E5779387F7FBF58F93C70703231234
:10103000F7C037670040835787C08D66F58F896694
:10104000639DD700835687C0F1779387F7F8F58FB4
:1010500083D68188B58F2314F7C082809386118947
:101060008C22376600404EBA930500048CA2854658
:1010700094A38356C6C0F5779387F7F8F58F9166EA
:10108000B58F95B7A38601882388018823850188B9
:10109000A38501882386018823870188A387018887
:1010A000A3890188238A0188A3880188238901886C
:1010B0000D672394E188B767004003D607C00D672A
:1010C00093060702358E2390C7C003D647C0130787
:1010D0000704B18E2392D7C083D687C0358F23945F
:1010E000E7C003D7C7C0134707022396E7C0239A78
:1010F0000186239B018623960184A3880186828032
:1011000031E593878187983393060002631DD70CDE
:101110009C2393F707066398E70CEFF26F81B7679C
:1011200000408A27B7050020114693850506DD3962
:101130003767004023120700835607C09D679387D7
:101140000707B58F2310F7C06FF0CF80894763186A
:10115000F50A37670040835687C093070702139646
:10116000160163580604D6239387B18893F6F60FC9
:1011700094A3942393F6F60F93B61600A386D18812
:101180009423E5779387F7FC93F6F60F89CE835681
:1011900087C0F58F83C6A18893F6F60FB336D000CB
:1011A0009A06B58F21A0835687C0F58F2314F7C008
:1011B0008280D6279387E18893F6F60F94A3942331
:1011C00093F6F60F93B616002388D1889423E5771B
:1011D0009387F7FC93F6F60FDDFA835687C0F58FF9
:1011E00093C70704E1B7376700402312070083560F
:1011F00007C09D6793870707B58F2310F7C08280CC
:10120000EFE21FF3B76700402A848A2383C6018870
:101210000547420541114181938401886360D702EB
:1012200013171500BA9703D7C181090542059AA380
:101230007914894741819CA01374F40F94200146CE
:10124000B7F5FF1FF91693F6F60F25481377F60F3B
:10125000B387E60093F7F70F636F87001306140058
:10126000058642062C00418269369C203E9480A06F
:1012700041016FE03FEE13F7170019C73C00B2972A
:10128000238007000506D9B713D727002E97898B2F
:101290000347877E91C311839377F7001387770302
:1012A0006364F800138707033C00B29798A3D9BF83
:1012B00045E5EFE2FFE783C781879384818793F752
:1012C0000706D1E79C3015476385E7061947639009
:1012D000E708E220A14763F38700214483C7018820
:1012E0004204418095C71375F40F193FFE203767FC
:1012F0000040818FFEA042A3835607C0E577938705
:10130000F7FBF58F93C707032310F7C06FE09FE447
:10131000B7670040138941888A2383250900130693
:1013200014000582F93483270900A2972320F900CD
:1013300075BF376700408357C7C483C60187C2079C
:10134000C18393F707F8D58F2316F7C4C1B7B767E2
:101350000040239207005DBF8547631BF500B76718
:101360000040239A070003D7C184239BE186828033
:101370008D47631BF504B767004003D7C7C0938749
:1013800007031377070405CFA3880188239207007A
:10139000B766004003D7C6C0F5779387F7F8F98F93
:1013A00003C741891377F70F3337E0003A07B98F46
:1013B0002396F6C003D7C184239AE18682802389CD
:1013C000018823960700E9B78280631D0528EFE2B4
:1013D0009FD4376A00402A8903558A009385818704
:1013E00011468934938A818783C70A0023A2018822
:1013F0002380018813F7070613848187938441882B
:1014000093890188631207201830AD4663EBE61814
:101410008D660A079386865E369718430287B767FC
:1014200000409A2309490607BA97239007007E20B7
:101430004209135909016374F90023132401035964
:101440006400A14763F32701214983C709004209CA
:10145000135909016389071E1375F90F23800900C9
:1014600045337E2037670040B38727417EA0231293
:1014700027019D67835607C09387070725AAFD8B21
:1014800009476390E7125820930610086307D702B4
:1014900093063008630FD7026315F7108D66239407
:1014A000D18837670040835787C0C207C18393F74D
:1014B000F7F8B58F2314F7C09DBF376700408356F8
:1014C00047C0E577FD17F58F93C707022312F7C0D2
:1014D000B9BF376700408356C7C0E577FD17F58F62
:1014E00093C707022316F7C099B7FD8B0947639A84
:1014F000E70A5A20937607F0CDE61377F70F9306A5
:101500001008630AD700930630086300D702631AF5
:10151000F708856669B737670040835647C0E577A7
:10152000FD17F58F93C7070155B7376700408356FE
:10153000C7C0E577FD17F58F93C7070165B73A2058
:101540002388E186EDB53E20894613D78700630ED8
:10155000D7008D466302D70285476314F7048D6771
:101560009387C7669CC04949D9B58D6793878762C1
:101570009CC01309300465BD93F7F70F6365F7044A
:101580000D678A0713078761BA979C438287938701
:1015900081819CC09C4003C907009307F00FE318AA
:1015A000F9E8FD571CB037670040835607C09567C0
:1015B00093870705B58F2310F7C06FE01FB98D67BC
:1015C0009387E769F9B78D6793878768D9B793875A
:1015D000C1819CC0FD572380F9006DBF83C6118770
:1015E000B76700409A230607BA9796A3054981B5C5
:1015F0003820A388E18625BDB76700409A230607F7
:10160000BA9723900700DDB793070002E31BF7F8B2
:101610001C30930610026389D70093062002638072
:10162000D702E390E7F821B503550A00B70500207B
:10163000114693850506EFF0CFFB1D49CDBB382041
:101640002389E186EDB38C40E38D05E0B767004068
:101650008A23130619000582EFF0AFF99C40CA9760
:101660009CC001B58280EFE2BFAC376400402A899C
:101670000A288D6515469385E567EFF08FF71E28DC
:1016800093040401A1078607A29723902701A94785
:101690005EA8035744C0E5779387F7FBF98F93C79C
:1016A00007032312F4C06FE0FFAAEFE27FA8B71789
:1016B0000000938767F623A2F18623A80184B71759
:1016C00000009387071023ACF184B71700009387BD
:1016D000072B23AAF184B71700009387A73C23A008
:1016E000F186B71700009387470823AEF1840D6594
:1016F00023A601861305C56A23A40186EFF00FD83F
:1017000001459537A38801866FE0DFA483C7B188C0
:1017100003C5E1883E9583C7C1881D8D83C7F188C5
:101720001D8D4205418182801387A18818234111B4
:101730009387A1881377F70F35CB1387018914237B
:1017400093F6F60FA5C6230007002380070037662F
:101750000040035786C0835686C03983134717005D
:101760009982058B858A630CD700835686C0717772
:101770001307F7FC758F8D66358F2314E6C09C2305
:10178000B766004093F7F70FA5CB923683C7F18871
:1017900013F7E70F3297060736971A23858B78875A
:1017A0001808BA9703C5E7FF410182809823137791
:1017B000F70F71F71387D188142393F6F60FE1D250
:1017C00023000700054798A337660040035786C0EB
:1017D000835686C03983134717009982058B858A03
:1017E000E30FD7F8835686C071771307F7FC758F20
:1017F0008D669386060449B7923283C7C18849BF74
:10180000EFE21F90F17C0D692A8C2E84938CFCFCF6
:101810001309090419E06FE07F921387A1881C2344
:10182000138BA18893F7F70FE9CB9387E18803C562
:10183000F1889C23138DF188898FC207C183B1E39E
:1018400093870189942393F6F60FE9D62380070046
:1018500023000700B766004083D786C003D786C041
:10186000B98393C717001983858B058BE384E7FA47
:1018700083D786C00D67B3F7FC00B98F2394F6C0F9
:1018800051BFA28463F38700BE84B76D004083D745
:101890008D02C204C1803E9542052686E2854181C3
:1018A000EFF06FE483470D00058C269CBE94938671
:1018B000E1889C2293F4F40F420423009D004180B0
:1018C000E39AF4F42380060023000D0023000B00AC
:1018D00083D78DC003D78DC0B98393C717001983F1
:1018E000858B058BE388E7F283D78DC00D67B3F74F
:1018F000FC00B98F2394FDC031BF9387B1889C232E
:1019000003C5C188938DC188898FC207C183A9E3AC
:101910009386D1889C2293F7F70FE38D07EE2380FF
:10192000060085471CA3B766004083D786C003D74F
:1019300086C0B98393C717001983858B058BE38B0A
:10194000E7EC83D786C0B3F7FC00B3C727013DB7E8
:10195000A28463F38700BE84376D004083570D0275
:10196000C204C1803E9542052686E2854181EFF0A2
:101970008FD783C70D00058C269CBE949386B188B3
:101980009C2293F4F40F420423809D004180E39352
:10199000F4E823800600854723800D002300FB0028
:1019A00083578DC003578DC0B98393C71700198320
:1019B000858B058BE380E7E683578DC0B3F7FC008A
:1019C000B3C727012314FDC0B1B5EFE26FF39387CE
:1019D00031890547F579657AAA8D2E8498A31389F4
:1019E0003189930B00049389F9F8130AFAFB09E48F
:1019F000230009006FE08FF4938741899C23938C27
:101A0000418993F7F70FD5CF93872189842393F4E6
:101A1000F40F139504014181B387AB40C207C18322
:101A2000F9D7228663F387003E86B7670040131D0F
:101A30000601923F135D0D01EE85329542056A86DF
:101A40004181EFF04FC13386A4019386218933048D
:101A5000A4411376F60F420490A29306000441803D
:101A6000EA9DB7670040E314D6F8D2BF23800C008C
:101A700003D7C7C09316170163D7060083D7C7C023
:101A800093F7070491EFB767004003D7C7C09316D9
:101A90001701E3CE06F483D7C7C093F70704A1FB71
:101AA000376700408357C7C0B3F7F9002316F7C064
:101AB0008357C7C0B377FA0093C707032316F7C04D
:101AC0003DB793871189842393F4F40F1395040190
:101AD0004181B387AB40C207C18391DB228663F3A8
:101AE00087003E86B7670040131D0601923B135DD9
:101AF0000D01EE85329542056A864181EFF0AFB562
:101B00003386A401938611893304A4411376F60F1A
:101B1000420490A237670040930600044180EA9D8A
:101B2000B767004013070703E313D6EC52A305473A
:101B30002380EC0003D7C7C09316170163D70600B4
:101B400083D7C7C093F7070499EFB767004003D75F
:101B5000C7C093161701E3CC06E883D7C7C093F735
:101B60000704E39607E8376700408357C7C09166CC
:101B7000B3F7F900B58F1DBF038EC180814763E3C2
:101B8000B70082803307F5000348070003C7518977
:101B9000A146938E5189135F77001316170093782F
:101BA00018001377F60F63061F013347CE00137733
:101BB000F70FFD1693F6F60F13581800E9FE850788
:101BC0002380EE0093F7F70F5DBFEFE26FD6AA8593
:101BD00023A4A1803745014013050580EFE0BFB481
:101BE0006FE04FD723ACA18813771500B7170140DA
:101BF0009376F50F9387078021C7D84713670708A7
:101C0000B717014093870780D8C713F726000DCF79
:101C1000D84713670710D8C799471387D1809546CF
:101C20001CA32387D180937605019387E18099C215
:101C30009D4614A31375050219C1194798A3828004
:101C4000D8471377F7F76DBFD8471377F7EFE1B7AA
:101C500083A7818941113717014093F6C7FF36C624
:101C6000832787801307078018479D83858B137709
:101C700007103337E000D58F0607D98F5C863245D1
:101C800041018280EFE22FC9371401402169AE84FF
:101C9000232A2481AA899355850037350140EFE036
:101CA000FF9B93F5F90F37350140EFE03F9B93D54C
:101CB000840137350140EFE07F9A93D5040193F515
:101CC000F50F37350140EFE07F9993D5840093F508
:101CD000F50F37350140EFE07F9893F5F40F373576
:101CE0000140EFE0BF9713040480232824016FE034
:101CF000CFC5EFE24FC237140140216993598500E7
:101D00004111232A2481CE85AA8437350140EFE092
:101D1000FF9493F4F40FA68537350140EFE01F944C
:101D2000814537350140EFE07F93814537350140EC
:101D3000EFE0DF92814537350140EFE03F9281458A
:101D400037350140EFE09F91054523282481EFE0DE
:101D50006FCECE85232A248137350140EFE01F90D6
:101D6000A68537350140EFE07F8F8145373501404B
:101D7000EFE0DF8EC887814537350140EFE01F8EE9
:101D80004887814537350140EFE05F8DC886814542
:101D900037350140EFE09F8C488623282481324567
:101DA0001304048041016FE04FBAEFE26FB893571C
:101DB000450093F70703411193E7A7045C8493D789
:101DC00085015C8593D70501DC8593978500C20565
:101DD000C181A181DD8D83A78189C8846C86C18B77
:101DE000194699CB13845189994528002300040092
:101DF00061331C201D465C872C001385818AEFE02F
:101E00005FB341016FE00FB5EFE28FB2935745002A
:101E100093F70703411193E727045C8683A7818921
:101E2000C886C18B094699CB1384518989456800BE
:101E30002300040091331C200D465C876C00138541
:101E4000818AEFE01FAF41016FE0CFB0EFE24FAE0C
:101E5000138481891C40411193F70702B1CB1946C5
:101E60002C001385818AEFE05FA293845189954508
:101E700028002380040009331C409486982093F79F
:101E8000F7F71CC06395E60093E707081CC01C84A5
:101E900085839D8B238EF1889C84DC831C855C83E9
:101EA0009C85DC821C865C82124541016FE08FAA12
:101EB00015462C001385818AEFE03F9DC9BFEFE2F4
:101EC0002FA7138481891C404111C18BA9CB1D46CA
:101ED0002C001385818AEFE05F9B9384518999459B
:101EE00028002380040049391C401487982093F768
:101EF000F7FB1CC06395E60093E707041CC03C8514
:101F000013978700A183D98F7C833C861397870022
:101F1000A183D98F7C82124541016FE0AFA319469E
:101F20002C001385818AEFE05F96D1BFEFE24F9DD1
:101F3000B7170240984F99669386D681558F98CFF0
:101F4000D84FB70682008506558FD8CFD84B3714A7
:101F500001402166136717004111D8CB13060618FC
:101F60008D4513050480EFE04FC413068006AD4590
:101F7000130504C0EFE06FC313060009A145130564
:101F800004C0EFE08FC29307000937070140232800
:101F9000F4C05C4393E747005CC3EFE04FBB83A50D
:101FA00081803745014013050580EFE0CFF7EFF062
:101FB000CFEF0D45EFF02FEB83C42187938981800C
:101FC00093F4F40F83C7118793F7F70FE5DF3735E5
:101FD00000001305456F0D23EFE04FD6AA85373576
:101FE00000001305C56FFD2EEFE06FDCAA853735C5
:101FF000000013058570FD26EFE02FDEAA8537353A
:10200000000013054571F92EEFE04FDFAA85373543
:10201000000013050572F926EFE0AFE0AA85373519
:1020200000001305C5727D2EEFE04F9E371401406E
:10203000114A232A448193070010232AF48005457E
:10204000EFE0AFA2C5452328448137350140EFE0DA
:10205000CFDE370701405C4393E717005CC3A167FD
:102060002328F48083A7818A9386818ADA22DC433D
:10207000D626138A818AC207C183B307F740958F9A
:102080007D17F98F91C73735000013058573AD2192
:10209000EFF0CFE711C5373500001305C576A92944
:1020A0000D6CB71A0020130C0C6E938A8A25B75C4E
:1020B0003130416B938C4CD57D1BEFF02FE595476C
:1020C00063FFA706EFF04FE66205618563590506D9
:1020D00099452800EFF0CFF23C841484988413963D
:1020E0008700A183D18F7C813C8513968700A183D3
:1020F000D18F7C833C8613968700A183D18F7C820D
:1021000093F70607C9C79307C00F630EF706930737
:10211000D00F6303F7029307B00F6312F7022C820C
:102120003735014093E51500EFE02FD18145373574
:102130000140EFE0AFD221A01245EFF0BFAAEFF0CF
:10214000EFDC854763FCA70AEFF00FDE62056185CF
:102150006346050A89452800EFF08FEA3884148425
:102160009C84131687002183518F788113F706070B
:102170003DCF950793F7F70F11476368F7068A0776
:10218000E2979C4382871245EFF03FA44DBF83A79F
:10219000818928819245918B99C301394DB7EFF020
:1021A0007FAE71BF66C2FD575C849C83DC841C8358
:1021B0005C859C82DC851C825C8695452800EFF05E
:1021C000DF802DA8B7F7FF1F83A7877E3EC2E1BF40
:1021D000EFF01FA82AC2C1BF83A70900C5BFB73748
:1021E00001409E2393F78703D5B702C26DBF83A733
:1021F00081892881918B638C070E393183A7818A6D
:1022000003574A008356CA00DC43B3F76701B3079C
:10221000F740958F7D17F98F03C7E18063C0E7060C
:102220001385818AEFE0CFE5058929C9053183A7A8
:1022300081892AC2A18B2A8D938DC18981CB83C7C5
:102240000D008A07D6979C436304F50283C70D00EF
:10225000954528005C8493578D01DC8493570D01CC
:102260005C8593578D00DC852306A101EFF0EFF527
:1022700083C70D008A07D69723A0A70183A7818A69
:1022800003574A008356CA00DC43B3F76701B3071C
:10229000F740958F7D17F98F03C7D18063CBE70295
:1022A0001385818AEFE0CFDD058905E509399307BC
:1022B00000045C8493578501DC84935705012AC28E
:1022C0005C8548869357850095452800DC85EFF0AE
:1022D000CFEF83C72187E382F4DE03C521870D8911
:1022E000EFF06FB883C4218793F4F40FC9B3EFF014
:1022F0005FA0930700F85C8493578501DC849357B3
:1023000005015C85935785002AC2DC85488675B532
:1023100001A097E1FF1F9381E154173100201301C1
:1023200061CE171500001305A55197E5FF1F938592
:1023300065CD1386818263FAC5008322050023A040
:10234000550011059105E3EAC5FE1385818297F5D5
:10235000FF1F9385E5F26377B50023200500110583
:10236000E36DB5FEFD42739002BC8D4273904280D6
:10237000930280087390023097E2FFFF9382C2C8F5
:1023800093E2320073905230EFE00F919702000019
:10239000938202BA7390123473002030EFD25FD967
:1023A0002E85931506014111C18132C6EFF0EFE190
:1023B0003246410132856FD0FFD9138701811C431A
:1023C000B71600209386C6273E95636BD500B75697
:1023D00000209386068063E5A60008C33E858280C0
:1023E000FD57EDBF39713EDA2ED232D436D63AD807
:1023F00042DC46DE9387418122CC804326CA06CE4A
:10240000AA8409C41C4C99E32285ED290C4454107C
:102410002686228536C6EF007012F2406244D2440E
:1024200021618280011126CA4AC806CE22CC4EC63E
:1024300052C4AA842E8901C51C4D91E3E1219C4C14
:10244000804499E326857D29971700009387873775
:10245000631BF402C0405E24A18BB1C71C48A1C716
:10246000FD59294A1C4483450900FD17B1E91CC4E4
:1024700063DD07062286A94526856120FD5763088E
:10248000F502294535A0971700009387A7356314F7
:10249000F4008044C9B7971700009387A730E31C66
:1024A000F4FAC0444DBFA2852685112A55D97D5521
:1024B000F2406244D2444249B249224A05618280D4
:1024C0001CC4050963D70700184C63CAE70063887A
:1024D00045011C401387170018C08CA361B72286E2
:1024E00026850520E31035F9D9B71C40138717005E
:1024F00018C0294798A371B793874181AA8588435B
:1025000015B7011122CC26CA4AC806CE4EC6AA84E7
:102510002E89328401C51C4D91E3ED2697170000EA
:102520009387472A6317F406C0401C4C1CC45E24E2
:10253000A18BC1C31C48B5CF1C4808409379F90F43
:102540001379F90F1D8D5C486346F500A285268539
:10255000692C25E51C440505FD171CC41C40138788
:10256000170018C0238037015C486388A7005E24E9
:10257000858B81CBA9476316F900A2852685B524F2
:102580000DEDF24062444A85D2444249B2490561A8
:102590008280971700009387E7246314F400804437
:1025A00069B7971700009387E71FE310F4F8C0445A
:1025B000ADBFA2852685212041D17D59D9B74111D2
:1025C0009387418126C2844322C44AC006C62A8911
:1025D0002E8489C49C4C99E326852D2697170000EC
:1025E0009387471E631BF402C0400317C400931770
:1025F0000701C18393F68700ADEA93F6070195EED4
:10260000A5472320F900136707045AA47D55B2405B
:102610002244924402494101828097170000938727
:10262000671C6314F4008044C9B7971700009387B0
:102630006717E31CF4FAC0444DBF918B9DC34C58FF
:1026400089C9930744046384F5004A853123232A0A
:1026500004025E242322040093F7B7FD5EA41C4805
:102660001CC05E2493E787005EA41C4899EB5E249F
:102670001307002093F707286385E700A2854A85A2
:10268000A1215E2413F717001DC35C482324040016
:10269000B307F0401CCC1C480145B5FB8317C400B0
:1026A00013F707082DD793E707045EA485B7898B36
:1026B000014791E3584818C4F9BFDE25011122CC27
:1026C00026CA06CE4AC84EC613F78700AA842E84AF
:1026D00079EBD841634DE000B841634AE000014521
:1026E000F2406244D2444249B24905618280585462
:1026F0007DD703A904009396370123A0040063DB70
:10270000060670485E24918B99C75C401D8E5C580C
:1027100099C33C401D8E5C540C508146268582979F
:10272000FD575A24631DF5009440F54763E8D7062A
:10273000B70740208507B3D7D700858BA5C31C48B2
:10274000232204001CC09317370163D80700FD57EC
:102750006314F5009C4091E368C84C5823A0240101
:10276000BDDD930744046384F5002685F526232AFE
:102770000402B5B70C500146854626850297FD57E1
:102780002A86E311F5F89C40B5DF75476385E700BD
:1027900059476393E70423A0240191B71367070403
:1027A0005AA47D5535BF83A90501E38A09F203A91F
:1027B00005008D8B23A0350133093941014791E391
:1027C000D84918C4E35D20F11C540C50CA864E86CB
:1027D000268582976347A0005E2493E707045EA4E2
:1027E000C9B7AA993309A940F1BF9C49B9CF0111D2
:1027F00022CC06CE2A8411C51C4D81E72EC6192293
:10280000B245971700009387E7FB639BF5004C40A8
:102810008397C50095C722856244F240056171BD6A
:1028200097170000938707FC6394F5000C44CDB71D
:1028300097170000938707F7E39CF5FC4C44C9BF4A
:10284000F240624401450561828001458280411168
:1028500022C406C62A844EA572A523200500232281
:102860000500232405002322050623280500232A2A
:102870000500232C0500214681451305C505EFD031
:102880003F8E97170000938707B25CD09717000020
:10289000938727B41CD497170000938707B85CD49C
:1028A00097170000938767BA00D01CD8B240224423
:1028B0004101828097050000938565F3A9A241112B
:1028C00026C2130680069384F5FFB384C4024AC06F
:1028D0002E8922C406C6938544071D262A8401CD6D
:1028E0002320050023222501310508C41386840610
:1028F0008145EFD0FF862285B240224492440249AE
:10290000410182801C4DADE3411106C622C49707E8
:102910000000938767FA1CD5938701829C43232488
:10292000050423260504232805046314F5008547C0
:102930001CCD2A841D2848C02285052808C422856C
:102940002D2048C4484001469145113708440546AA
:10295000A545F53D48440946C945D53D85471CCCAC
:10296000B2402244410182808280411193870182DA
:1029700026C284434AC006C69C4C22C42A8999E3D5
:1029800026854937938484048044DC40FD1763D650
:1029900007009C40B9CF8440C5BF0317C40039E786
:1029A000C177850723220406232004002322040084
:1029B000232404005CC423280400232A0400232CBD
:1029C0000400214681451305C405EFD06FF9232A81
:1029D0000402232C04022324040423260404228555
:1029E000B240224492440249410182801304840689
:1029F00071BF91454A85E13588C051FDB14723201B
:102A0000F9000144E9BF797122D44AD052CC56CAA8
:102A10005AC85EC606D626D24ECE2A8AAE8A13047D
:102A200085040149054BFD5B09ECB25022544A85EF
:102A300092540259F249624AD24A424BB24B456122
:102A40008280044483294400FD1963D409000040B6
:102A5000E1BFDE24637BFB008397E400638777019B
:102A6000A6855285829A3369A90093848406E9BFBA
:102A70001971A6DAAE848395E500A2DC86DE328485
:102A800063DB0500DE2423A0060093F7070885E733
:102A9000930700401DA0300836C6EF009021B246D3
:102AA000E34205FE7247BD67F98F7977BA9793B70E
:102AB00017009CC2F1BF930700041CC0F650665477
:102AC000D654014509618280DE25011122CC06CE53
:102AD00026CA4AC8898B2E8489CF930774041CC0E8
:102AE0001CC885475CC8F2406244D2444249056133
:102AF000828074003000AA84A53FA2452A892685D9
:102B0000012219E98317C40013F7072069FFF19B1D
:102B100093E727005EA4D1B7970700009387C7D932
:102B20009CD45E2408C008C893E707085EA4A247A7
:102B30005CC8B24781CF8315E4002685EF00901A68
:102B400011C55E24F19B93E717005EA45E243369F0
:102B5000F9002316240141BFDDC183A7C5FF411140
:102B600022C406C626C21384C5FF63D307003E9461
:102B7000AA84EF00F01E9387018A9C4381EF2322F1
:102B8000040023A0818A2244B24026859244410158
:102B90006F00301D637EF40014403307D400639649
:102BA000E7009843DC43369718C05CC0D9BFBA87AA
:102BB000D84319C3E37DE4FE94433386D700631FF3
:102BC00086001040B29694C33386D700E31DC7FA3F
:102BD00010435843B29694C3D8C375B76375C40005
:102BE000B1479CC04DB71040B306C4006316D70070
:102BF00014435843B29614C058C0C0C369B782800A
:102C0000011126CA93843500F19806CE22CC4AC819
:102C10004EC6A104B14763F3F404B14463E2B404C3
:102C20002A89EF00F0139387018A98433A8439E0A8
:102C30009387418A9C4391E781454A85152F23A2BA
:102C4000A18AA6854A852D27FD5963193507B14705
:102C50002320F9004A85EF00D01029A0E3D004FC1E
:102C6000B1471CC10145F2406244D2444249B249D5
:102C7000056182801C40858F63CF0702AD4663F6F5
:102C8000F6001CC03E9404C031A05C406313870270
:102C900023A0F18A4A85EF00D00C1305B4009307F6
:102CA000440061993307F5405DDF3A94898F1CC079
:102CB0005DBF5CC3C5B72287404095BF1304350094
:102CC0007198E30285FCB305A4404A855525E31CB1
:102CD00035FBB5BF1C46FD171CC663DA0700184E4E
:102CE00063C5E700A9476394F5006FF09F811C421C
:102CF0002E851387170018C28CA38280011122CC65
:102D000026CA4AC84EC652C406CE2A89AE89328423
:102D1000B304D6007D5A63149400014501A80C2029
:102D20004E864A85453F0504E31745FFF24062445D
:102D3000D2444249B249224A05618280357122CD8E
:102D400026CB4AC94EC706CF52C556C35AC1DEDE8E
:102D5000E2DCE6DAAA89AE843289368409C51C4DE4
:102D600099E3EFF03FBA971700009387A7A5639701
:102D7000F40C83A44900DE24A18BFDC39C48EDC361
:102D800093070002A304F1029307000302D2230574
:102D9000F10222C6930B5002971A0000938A8AA66A
:102DA000054C294B4A841C2099C3639E770DB30CB4
:102DB0002441638D0C00E6864A86A6854E853D3FFC
:102DC000FD57630FF51C9256E69636D21C20638998
:102DD000071CFD571309140002C802CE3ECA02CCDC
:102DE000A309010482D48345090015465685A92FFD
:102DF00013041900C24751E913F7070109C7130764
:102E00000002A309E10413F7870009C71307B00202
:102E1000A309E104834609001307A002638FE606B5
:102E2000F2474A848146254618209305140013076B
:102E300007FD6377E60AB5CA3ECE85A8971700005E
:102E40009387479A6395F40083A489002DB7971759
:102E5000000093872795E390F4F283A4C90021BF73
:102E6000A6854E85EFF0AFF501DD7D55FA406A4449
:102E7000DA444A49BA492A4A9A4A0A4BF65B665CDE
:102E8000D65C0D618280050439BF33055541331589
:102E9000AC00C98F3EC82289B9B7324793064700B4
:102EA000184336C6634707023ACE18209307E0025C
:102EB000631DF70418309307A002631BF702B247A3
:102EC0000904138747009C433AC663C107023ECA00
:102ED0002DA83307E04093E727003ACE3EC8F1B76C
:102EE000B387670385462E84BA973DBFFD57C5B7A4
:102EF000050402CA8146814725461820930514001F
:102F0000130707FD6374E606F9F20C200D4617154A
:102F100000001305A58F0D2D11CD97170000938785
:102F2000E78E1D8D93070004B397A7004245050463
:102F30005D8D2AC80C201946171500001305458D14
:102F4000130914002304B102012535C197D7FFFFEF
:102F50009387470B95E74247B2471377071009CF8E
:102F600091073EC69257D2973ED22DBDB3876703D5
:102F700085462E84BA9751B79D07E19BA107D5B727
:102F80007800970600009386A6D726860C084E8503
:102F900097000000E7000000FD572A8AE314F5FCC3
:102FA000DE2493F70704E39207EC1255C1B57800CD
:102FB000970600009386C6D426860C084E85012A03
:102FC000E1BF797156CA9C49BA8A984522D426D263
:102FD0004ECE52CC06D64AD05AC85EC6AA892E8496
:102FE000B284368A63D3E700BA879CC003473404AF
:102FF00019C385079CC01C4093F7070281C79C40FA
:1030000089079CC00329040013796900631A090029
:10301000130B9401FD5B5C449840998F634CF90459
:103020001C408346340493F70702B336D000A5EB67
:1030300013063404D2854E85829AFD576303F50446
:103040001C4011469840998B544481446397C700B3
:10305000B384E64063D3040081441C44184863549D
:10306000F700998FBE94014969047D5B639824053C
:10307000014509A885465A86D2854E85829A631EE7
:1030800075017D55B250225492540259F249624A58
:10309000D24A424BB24B456182800509ADBF33072E
:1030A000D40013060003A301C70403475404938705
:1030B0001600A2978906A381E7049DBF8546228654
:1030C000D2854E85829AE30E65FB050945B7797175
:1030D00022D426D24AD04ECE06D652CC56CA5AC890
:1030E000B689942D930790063289AA842E8413867C
:1030F0003504638DF60263E2D70693078005638685
:10310000F61863EDD700638E062093073004638EB4
:10311000F60A930A24042301D404C9A093073006B5
:103120006385F60A93074006E395F6FE1C400843C4
:1031300093F6070893054500C5C61C410CC363D828
:1031400007001307D002B307F040A301E404970679
:1031500000009386666C294765A893070007638281
:10316000F61663E5D7029307E0066389F61893071E
:10317000F006E390F6FA0C401C4313F8050813859B
:1031800047006307080608C39C4385A893075007B8
:10319000E383F6FE930780076389F61293073007EF
:1031A000E399F6F61C43D04181459386470014C34A
:1031B00083AA07005685492E01C53305554148C0ED
:1031C0005C401CC8A301040461A81C43930A2404A6
:1031D000938647009C4314C32301F4048547D5B765
:1031E00093F607041C410CC3B9DAC207C18781BF3B
:1031F00093F5050408C3C9D99E231307F006638716
:10320000E60E97060000938626612947A301040471
:103210004C400CC463C5050008406D9908C099E393
:10322000B28A89CDB28AB3F5E702FD1AB6958C2130
:103230002380BA00B3D5E70263F0E70CA147631E11
:10324000F7001C40858B91CB58401C4863C7E700B2
:1032500093070003A38FFAFEFD1A3306564110C8E8
:103260004E87CA867000A2852685EFF09FD57D5ACD
:10327000631D450B7D55B250225492540259F249B8
:10328000624AD24A424B45618280A382D5049706A6
:103290000000938666580C40084313F805081C414B
:1032A0001105630D080208C313F7150001C793E564
:1032B00005020CC04147B9FB0C4093F5F5FD0CC06D
:1032C000B1B79C4193E707029CC193078007A30213
:1032D000F404970600009386665575BF13F805043D
:1032E00008C3E30308FCC207C1837DBF9706000043
:1032F00093868652214719BFAE8735B794411C4348
:10330000CC4913F80608138547006306080008C374
:103310009C438CC339A008C393F606049C43F5DA9A
:103320008EA323280400B28A25BF14485686CA8576
:1033300026858299E30045F51C40898B8DE7B247CD
:103340004844E35AF5F23E853DB785465686CA8520
:1033500026858299E30065F3050A5C443247998F1C
:10336000E345FAFEE9BF014A930A94017D5BF5B794
:10337000411122C42A842E8597E7FF1F23A007F05E
:1033800006C6EFF08F83FD576319F50097E7FF1F1F
:103390009387C7EE9C4391C31CC0B24022444101B5
:1033A0008280411122C42E848395E50006C65D2AE1
:1033B000634905007C48AA977CC8B2402244410179
:1033C00082805E247D777D17F98F5EA4FDB7DE25B0
:1033D000011122CC26CA4AC84EC606CE93F7071062
:1033E000AA842E843289B68991C78395E5008946DF
:1033F00001460D225E247D777D17F98F5EA483152B
:10340000E4006244F240CE864A86B24942492685AB
:10341000D244056125A8411122C42E848395E5007C
:1034200006C6CD28FD575A24631AF500FD77FD170F
:10343000F98F5EA4B2402244410182808567D98F12
:103440005EA468C8C5BF8395E50025A8411122C4C4
:103450002A842E85B285368697E7FF1F23A007E2D0
:1034600006C6EFE0BFF3FD576319F50097E7FF1FAE
:103470009387C7E09C4391C31CC0B24022444101E2
:103480008280411122C42A842E8597E7FF1F23A73B
:1034900007DE06C61122FD576319F50097E7FF1FE7
:1034A0009387C7DD9C4391C31CC0B24022444101B5
:1034B0008280411122C42A842E85B28597E7FF1F9E
:1034C00023AE07DA06C6CD20FD576319F50097E74E
:1034D000FF1F9387A7DA9C4391C31CC0B2402244CC
:1034E00041018280411122C42A842E8597E7FF1F63
:1034F00023A607D806C6C920FD576319F50097E72C
:10350000FF1F9387A7D79C4391C31CC0B24022449E
:1035100041018280411122C42A842E85B2853686DB
:1035200097E7FF1F23AC07D406C67928FD57631918
:10353000F50097E7FF1F938767D49C4391C31CC096
:10354000B24022444101828093F5F50F2A9663141C
:10355000C500014582801C21E38EB7FE0505C5BF6D
:1035600082808280411122C42A842E85B2853686CB
:1035700097E7FF1F23A407D006C6B928FD57631994
:10358000F50097E7FF1F938767CF9C4391C31CC04B
:10359000B2402244410182809307800517E7FF1F54
:1035A000232EF7CC7D5582809307800517E7FF1FF8
:1035B0002326F7CC7D5582809307800517E7FF1FF0
:1035C000232EF7CA014582809307800517E7FF1F66
:1035D0002326F7CA7D5582809307800517E7FF1FD2
:1035E000232EF7C87D5582801E1400007E14000033
:1035F000A2150000EA140000A21500003E1500000C
:1036000046150000A2150000DC150000F0150000B2
:10361000F81500002E1400008E150000BE150000E5
:10362000C6150000CE15000009024300020100800B
:103630003209040000010202010405240010010502
:10364000240100010424020205240600010705816B
:10365000030A000109040100020A00000007050234
:103660000240000007058302400000001201100123
:1036700002000008861A0CFE000101020301A120CD
:103680000000000002000000160355005300420035
:103690002000530065007200690061006C000E0399
:1036A0007700630068002E0063006E0008000A00C7
:1036B00000004000000000000000000008000000C2
:1036C00040000000000000000000000000020006B2
:1036D0000001000100000000000000000086000062
:1036E000DE210000D8210000D0210000C42100000C
:1036F000A4210000556E69636F726E0053595343E5
:103700004C4B3A2025750A0048434C4B3A2025750E
:103710000A00000050434C4B313A2025750A000046
:1037200050434C4B323A2025750A00004144434334
:103730004C4B3A2025750A00546865726520697300
:1037400020736F6D657468696E6720666973687948
:1037500020696E20746865205541525420525820CB
:103760006275666665722E2E2E00000054686572C2
:103770006520697320736F6D657468696E67206674
:103780006973687920696E2074686520434443201A
:103790005258206275666665722E2E2E000000005B
:1037A0000000000000000000000000000000000019
:1037B0000000000000000000000000000000000009
:1037C00000000000000000000000000000000000F9
:1037D00000000000000000000000000000000000E9
:1037E00000000000000000000000000000000000D9
:1037F00000000000000000000000000000000000C9
:10380000232D302B20000000686C4C006566674556
:10381000464700003031323334353637383941428B
:1038200043444546000000003031323334353637EA
:0C383000383961626364656600000000C6
:10383C0000000000C0370000E0370000A037000097
:10384C00000000000000000000000000000000006C
:10385C00000000000000000000000000000000005C
:10386C00000000000000000000000000000000004C
:10387C00000000000000000000000000000000003C
:10388C00000000000000000000000000000000002C
:10389C0048E8010000000800808D5B001D06050053
:1038AC007C12002000000020040309041603000011
:0838BC000000002000000000E4
:00000001FF
