:040000006F20E0018C
:100004000000000000000000A8010000AA01000098
:10001400000000001C2000000000000000000000A0
:100024001C2000001C200000000000000000000054
:100034001C200000000000001C2000000000000044
:100044001C2000001C2000001C2000001C200000BC
:100054001C2000001C200000AC010000C6010000B0
:10006400E0010000FA010000140200001C2000005E
:100074001C2000001C2000001C2000001C2000008C
:100084001C2000001C2000001C2000008E09000021
:10009400000A00001C2000001C2000002E020000AA
:1000A4001C2000001C2000001C2000001C2000005C
:1000B4001C2000001C2000001C2000001C2000004C
:1000C4001C2000001C2000001C2000001C2000003C
:1000D4001C200000A40600002A0700008A07000074
:1000E400EA0200001C200000C40B00001C200000D9
:0C00F4001C200000EA0700001C20000097
:100100003D432A876373C3029377F700BDEFADE5E4
:10011000937606FF3D8ABA960CC34CC30CC74CC7F6
:100120004107E36BD7FE11E28280B306C3408A0623
:100130009702000096966780A6002307B700A306E3
:10014000B7002306B700A305B7002305B700A30433
:10015000B7002304B700A303B7002303B700A3022B
:10016000B7002302B700A301B7002301B700A30023
:10017000B7002300B700828093F5F50F93968500B2
:10018000D58D93960501D58D61B79396270097027B
:10019000000096968682E78086FA9680C1171D8FAA
:1001A0003E96E374C3F8A5B701A001A083A781819F
:1001B00091C38297B7070140054723AAE740938779
:1001C00007407300203083A7418391C38297B7070C
:1001D0000140094723AAE740938707407300203076
:1001E00083A7818391C38297B7070140114723AA50
:1001F000E740938707407300203083A7C18391C3F2
:100200008297B7070140214723AAE7409387074019
:100210007300203083A7018491C38297B707014000
:10022000414723AAE7409387074073002030B70770
:10023000014093870740DC4B93F7070299CB83A7D4
:10024000418491C38297B70701401307000223AA94
:10025000E740B707014093870740DC4B93F707045B
:1002600099CB83A7818491C38297B7070140130775
:10027000000423AAE740B707014093870740DC4BFF
:1002800093F7070899CB83A7C18491C38297B707D7
:1002900001401307000823AAE740B70701409387EE
:1002A0000740DC4B93F7071099CB83A7018591C3D7
:1002B0008297B70701401307001023AAE740B7074A
:1002C000014093870740DC4B93F7072089CF83A732
:1002D000418591C38297B70701401307002023AAE5
:1002E000E7409387074073002030B70701409387AA
:1002F0000740DC4B93F7074099CB83A7C18191C39B
:100300008297B70701401307004023AAE740B707C9
:10031000014093870740DC4B13974701635D07005B
:1003200083A7018291C382970567B707014013072E
:10033000078023AAE740B707014093870740DC4BBB
:1003400013973701635B070083A7418291C38297AC
:10035000B7070140056723AAE740B7070140938725
:100360000740DC4B13972701635B070083A781825B
:1003700091C38297B7070140096723AAE740B707EF
:10038000014093870740DC4B13971701635B07001D
:1003900083A7C18291C38297B7070140116723AA3F
:1003A000E740B707014093870740DC4B13970701ED
:1003B000635D070083A7018391C38297B70701405C
:1003C000216723AAE74093870740730020302E87D8
:1003D000A147BD4613781600630008028328050074
:1003E00013C8F6FF33781801232005010328050000
:1003F0003368E80023200501FD1793F7F70F9206F5
:1004000012070582E1FBA1473D479376160099CA82
:10041000032845009346F7FFB3F6060154C1544143
:10042000CD8E54C1FD1793F7F70F12079205058281
:10043000E9FF8280B71702409843C176FD16758F99
:1004400098C39843B706F4FFFD16758F98C3984379
:10045000C166598D88C39843558F98C385673717F0
:10046000024014431396E60063460600FD17C207D8
:10047000C183E5FBB7170240884345810589828027
:10048000B71702409843B70600FFFD16758F98C353
:10049000D843B706C1FFFD16758FD8C3D843B7063A
:1004A0000001598DC8C39843558F98C33717024030
:1004B0001C4393966700E3DD06FE8280411122C44F
:1004C000371402401C4006C637C73FF893E71700B1
:1004D0001CC05C4031070145F98F5CC01C403707E8
:1004E00000FF7D17F98F1CC0374702408327078024
:1004F00093E707012320F780B7071F001CC41D3FA7
:1005000029CD5C4071771307F77F93F7F7F05CC054
:100510005C403705290093F7F78F93E707405CC0ED
:100520005C40F98F5CC05C403167D98F5CC05C4037
:10053000370740FF7D17F98F37074000D98F5CC020
:1005400081375C40B71602402147F19B93E72700B3
:100550005CC0DC42B18BE39EE7FEB2402244410125
:100560008280371702405C439146B18B638FD7047A
:10057000A1466385D700B1CB0145828048434547FA
:1005800049813D89930725006393E700C9473717E1
:10059000024054431396F600635C060058439316DA
:1005A000E70063DD060037153D001305059019A827
:1005B0003747024003270780418B75D737157A00EC
:1005C000130505203305F502828037157A001305DF
:1005D00005208280411106C66937B7170240DC4307
:1005E000014793F6070889C691839D8B13871700EF
:1005F000B2403355E50041018280411106C6D93F22
:10060000B7170240DC43014793F6074089C6A18330
:100610008D8B13871700B2403355E500410182806E
:10062000411106C6453FB7170240DC430147939688
:10063000270163D60600AD838D8B13871700B24068
:100640003355E50041018280411106C6D13FB717FD
:100650000240DC43B240B583998B89073355F502DC
:100660004101828023100500930740302310F500DC
:1006700083570500DD8D2310B50091472312F50047
:10068000231E05008357050093E707042310F50098
:1006900082802316B50083578500858BEDDF0355D7
:1006A000C50082803747014083570780411122C629
:1006B00093F70702930607809DC38357078013852E
:1006C00001C9C207C18393F7F7FDC207C183231095
:1006D000F7808355478093F5F50FEF10A02D37472E
:1006E0000140835707801304078093F7070495CBD5
:1006F00083570780C207C18393F7F7FBC207C18303
:100700002310F7809387010A83D78700C207C1832C
:1007100089CB1385010AEF10A02D420541812312D8
:10072000A400324441017300203037470040835712
:1007300007409306074093F7070295C38357074086
:100740000145C207C18393F7F7FDC207C183231098
:10075000F7408355474093F5F50FEF10A025374735
:1007600000408357074093F7070491CF8357074012
:10077000C207C18393F7F7FBC207C1832310F74079
:100780008357800002907300203037570040835712
:1007900007809306078093F7070295C38357078066
:1007A0000145C207C18393F7F7FDC207C183231038
:1007B000F7808355478093F5F50FEF10A01F37574B
:1007C00000408357078093F7070491CF8357078032
:1007D000C207C18393F7F7FBC207C1832310F780D9
:1007E00083578000029073002030375700408357B2
:1007F00007C0930607C093F7070295C3835707C046
:100800000145C207C18393F7F7FDC207C1832310D7
:10081000F7C0835547C093F5F50FEF10A019375770
:100820000040835707C093F7070491CF835707C051
:10083000C207C18393F7F7FBC207C1832310F7C038
:1008400083578000029073002030B5C94111B7472B
:10085000014022C426C206C693870780AE842A843C
:100860006312F50613060040938501CA138501C97A
:10087000EF104013B7050020130600409385050FC5
:100880001385010AEF100012613B93171500B3D7CF
:100890009702B240924485078583C207C18323141F
:1008A000F400231A040023180400896723100400AD
:1008B0009387C7062316F400224441018280231641
:1008C000050082801D3BD1B7035585008280835788
:1008D000C500797122D4C207C18393F7F7FBC20721
:1008E00026D24ECEC18306D64AD02316F50083D732
:1008F00085002A84AE89C207C183B28499EF8357E9
:10090000050093F7070891CB83470600FD16C20642
:100910002312F500C182930416008357C40093E7A5
:1009200007042316F40081EAB2502254925402596B
:10093000F2494561828083D7090003D78900998FE6
:10094000C207C183EDD3368963F3D7003E8983574D
:10095000C400420913590901C207C18393F7F7FB89
:10096000C207C1832316F400A6854A864E8536C683
:10097000EF10E00AB2468357C400CA94B3862641FA
:1009800093E70704C2062316F400C18269BFB76764
:100990000040411126C483D447C422C6138707C42C
:1009A000BD88938707C0139424003E9483570400A6
:1009B000C207C18763DF070083A7018699C3268525
:1009C00082970357040085679387F7F8F98F231000
:1009D000F4008357040093F7070891CF83A7C185DC
:1009E00099C32685829703570400E5779387F7F02C
:1009F000F98F2310F4003244A244410173002030E7
:100A00004111B767004083D647C426C483D407C4C6
:100A100022C64AC2F58C93960401C18663D60606A7
:100A200003D947C4938707C01379F9001314290029
:100A30003E9483570400C207C18763D507028357DA
:100A4000040013974701635C071683A7818699C347
:100A50004A8582970357040085679387F7F8F98FD3
:100A60002310F4008357040093F7070891CF83A75E
:100A7000C18599C34A85829703570400E577938718
:100A8000F7F0F98F2310F4009397440163DE070217
:100A900037670040835707C493E787002310F7C4E4
:100AA00083A7018791C3829737670040035647C4E5
:100AB000FD779387F77FF18F2312F7C4835707C41D
:100AC00093E747002310F7C493F704409DCFB7671F
:100AD0000040376400401387010B938707C09306DB
:100AE00004C20356070091070907239EC7FEE39A35
:100AF000D7FE93070008130404C42316F40083A749
:100B0000418691C382972312040093F7042085CB7A
:100B100083D7010C8507C207C1832390F10C83A7FB
:100B2000C18691C3829737670040835747C4C20785
:100B3000C18393F7F7DFC207C1832312F7C493F78A
:100B400004108DC383A7818591C3829737670040C6
:100B5000835747C4C207C18393F7F7EFC207C18326
:100B60002312F7C49397340163DA07023767004012
:100B7000835707C4C207C183DD9BC207C18323100B
:100B8000F7C483A7418791C3829737670040835694
:100B900047C4FD77FD17F58F2312F7C43767004070
:100BA000835647C4E9773244FD17F58F2312F7C403
:100BB000A2441249130707C441017300203083A7E0
:100BC000018671B537670040835707C4C207C183E8
:100BD000DD9BC207C1832310F7C483A7418791C35C
:100BE000829737670040835647C4FD77FD17F58F1E
:100BF0002312F7C4130707C473002030B7670040FF
:100C000085462390D7C4239807C4AA869385010BF1
:100C1000014693070004B76E0040130F00109308BD
:100C2000E0036173930F0040214E83D30602131833
:100C300006019312460013580801F69203D70600E6
:100C40006384E301639FF30D61E703D70601930318
:100C50002700C20393D3030163E1780A0D07799B50
:100C60004207418393139700C20393D30301239256
:100C70007200239672002390F200BA97C207C183D4
:100C80002394F200BA9703D70602C2070506336819
:100C9000E80023900501C18389068905E317C6F999
:100CA00037670040930700082316F7C4B745024092
:100CB00083A70580F19B93E7270023A0F580835746
:100CC00007C4C207C183F99BC207C1832310F7C4BD
:100CD000231207C4835707C483560503D58F2310F7
:100CE000F7C4B7E700E023A2C710414723A2E710EB
:100CF0003707000423A2E710828013071702019B25
:100D000042074183930307FE9603B3E36300A9BF41
:100D10000507799B42072392020041832396020034
:100D200099BF0507799B2390F200BA97C2072392D7
:100D30000200C1832394F20003D706019303270026
:100D4000C20393D3030163EE78000D07799B42073A
:100D5000418393139700C20393D303012396720038
:100D600015B713071702019B42074183930307FE40
:100D70009603B3E36300C5B7B767004006053E9529
:100D8000C167FD177D16420641826313F60082801B
:100D900003D7050011058905231EE5FEE5B7B767F2
:100DA000004006053E95C167FD177D16420641824B
:100DB0006313F60082800357050089051105239F00
:100DC000E5FEE5B783D6010E83D7010C958FC207E8
:100DD000C183E14663F6F608B767004083D6C7C013
:100DE000139616016357060083D7C7C093F707040D
:100DF00091EFB767004083D6C7C0139616016341D1
:100E0000060683D7C7C093F70704B9EB83C7710CF5
:100E100093F7F70FB1E783C6D10C93F6F60FBDCA6F
:100E200003C6E10DB7660040239EC6021306000408
:100E3000238FC10CA386010C03D6C6C0F577938718
:100E4000F7F8F18F2396F6C0B766004003D6C6C008
:100E5000E5779387F7FBF18F93C707032396F6C0D7
:100E600083D7010C03D7A10C998FC207C1836147B7
:100E70006371F70237670040A946231AD7008356EB
:100E800047C0E5779387F7FBF58F93C707032312D6
:100E9000F7C0828003C6410CB7660040239AC602A1
:100EA000130600042382C10C0546A386C10C03D699
:100EB000C6C0F5779387F7F8F18F1166B18F59B7F0
:100EC000238A010CA384010C2383010CA382010C4F
:100ED0002384010CA383010CA386010C2382010C43
:100EE000238F010CB767004003D607C00D67930638
:100EF0000702358E2390C7C003D647C013070704E7
:100F0000B18E2392D7C083D687C0358F2394E7C094
:100F100003D7C7C0134707022396E7C02390010EEB
:100F20002395010C2386010C2390010C82805DED3A
:100F3000011122CC83C7610D06CE26CA4AC84EC60F
:100F400052C493F70706D1EF9387610D83C717004B
:100F500015471384610D6388E70619476393E70813
:100F600003596400A14763F327012149B764004096
:100F70009319090193D9090103D5040083A5010D33
:100F8000138619000582CD3B83A7010DCE9723A8B8
:100F9000F10C83576400B38737412313F400239285
:100FA000240103D704C0E5779387F7FBF98F93C734
:100FB00007032390F4C0F2406244D2444249B2494C
:100FC000224A05618280376700408357C7C483C6C1
:100FD000510DC207C18393F707F8D58F2316F7C4C5
:100FE000D9BFB767004023920700F1B78547631B5D
:100FF000F500B7670040239A070003D7010C23953B
:10100000E10C82808D47631BF504B767004003D76E
:10101000C7C0938707031377070405CF2382010C0A
:1010200023920700B766004003D7C6C0F5779387C1
:10103000F7F8F98F03C7D10C1377F70F3337E000B8
:101040003A07B98F2396F6C003D7010C2390E10E1F
:101050008280238F010C23960700E9B7828031E953
:101060001387610D0347170093060002631ED7081C
:1010700083C7610D93F707066398E708B7670040D9
:1010800003D58700B7050020411111469385050659
:1010900006C631333767004023120700835607C066
:1010A0009D67B24093870707B58F2310F7C04101B2
:1010B000828089476316F506B767004003D787C06B
:1010C000938707029316170163D9060283D7470057
:1010D00093F7F70FA384F10CB766004003D786C0DF
:1010E000E5779387F7FCF98F03C7410D3337E000AD
:1010F0001A07B98F2394F6C0828083D7C70093F76D
:10110000F70FA382F10CC9BF376700402312070015
:10111000835607C09D6793870707B58F2310F7C0D5
:101120008280631F053001114EC6B76900404AC86E
:101130002A8903D5890022CC9385610D114626CAE0
:1011400006CEB13983C7610D23A8010C13F707063A
:101150001384610D6315072A03471400AD4663E647
:10116000E6228D660A079386C637369718430287AC
:10117000B767004003D7070009490607BA972390CD
:101180000700835764004209135909016374F90089
:101190002313240103596400A14763F32701214964
:1011A00083A5010D42091359090191CDB76700408C
:1011B00003D507001306190005827D3E83A7010DA4
:1011C000CA9723A8F10C8357640037670040B387A0
:1011D00027412313F400231227019D67835607C07C
:1011E000938707076DAAFD8B09476390E71A0347AA
:1011F000440093061008630DD70293063008630D70
:10120000D7046314F71837670040835687C0F57713
:101210009387F7F8F58F2314F7C0835687C0F177CB
:101220009387F7F8F58F8D66B58F2314F7C091BFBC
:1012300037670040035647C0E5779386F7FCF18E89
:101240002312D7C0835647C09387F7FBF58F93C708
:1012500007022312F7C035B7376700400356C7C0EF
:10126000E5779386F7FCF18E2316D7C08356C7C067
:101270009387F7FBF58F93C707022316F7C011B7C3
:10128000FD8B09476393E71003574400937607F0FB
:10129000639D060E1377F70F93061008630AD702B3
:1012A000930630086308D7046311F70E37670040D0
:1012B000835687C0F5779387F7F8F58F2314F7C027
:1012C000835687C0F1779387F7F8F58F8566A9BFB6
:1012D00037670040035647C0E5779386F7FCF18EE9
:1012E0002312D7C0835647C09387F7FBF58F93C768
:1012F000070185B7376700400356C7C0E577938677
:10130000F7FCF18E2316D7C08356C7C09387F7FB2F
:10131000F58F93C7070195B703572400A38AE10C03
:101320008DB583572400894613D78700630FD700F4
:101330008D466304D70285476319F7048D67938749
:10134000474023A8F10C49492DBD8D679387073C81
:1013500023A8F10C130930042DB593F7F70F1147AB
:101360006361F7060D678A071307C73ABA979C436C
:1013700082879387018123A8F10C83A7010D03C9FC
:1013800007009307F00FE31EF9DEFD57A300F400FA
:1013900037670040835607C0956793870705F2407B
:1013A0006244B58F2310F7C0D2444249B249056167
:1013B00082808D679387C7447DBF8D67938707427F
:1013C0005DBF8D67938767437DB783C6C10CB767E1
:1013D000004003D707000607BA972390D7000549B6
:1013E0004DB3034724002386E10C61BBB76700407F
:1013F00003D707000607BA9723900700CDB79307D6
:101400000002E314F7F8834714009306100263897F
:10141000D700930620026380D702E398E7F695B3DE
:1014200003D50900B7050020114693850506EFF0A6
:10143000BF941D49B9B303472400238CE18691B3BF
:10144000828037070200931715007117F98F0589FD
:10145000376700404111BA9715C103D707007D16C1
:1014600042062317E10003C7050041829107A30745
:10147000E1000357E1008505239EE7FE13571600A0
:101480004168BA86BE882E857D18FD16C206C182C7
:10149000639F060193161700058A0A07B695BA9747
:1014A00009C603C705002390E7004101828003437A
:1014B000050091080905230761000343F5FFA30711
:1014C00061000353E100239E68FEC1B737070200A5
:1014D000931715007117F98F058937670040BA9780
:1014E00019C903D707007D16420621832380E50032
:1014F00041829107850513571600C168BA863E835D
:101500002E85FD18FD16C206C182639E1601931634
:101510001700058A0A07B695BA9709C683D7070048
:101520002380F50082800358030009051103230F6F
:1015300005FF13588800A30F05FFE9B7411122C426
:10154000376400404AC02A89035504018D65154659
:101550009385654106C626C2EFF01F8283570401BA
:10156000B2409244A1078607A29723902701A9477A
:10157000231AF400035744C0E5779387F7FBF98FEC
:1015800093C707032312F4C0224402494101828019
:10159000B7170000938747DC23A6F18623AC0184AC
:1015A000B71700009387E70523A0F186B71700005F
:1015B0009387E7F223AEF184B717000093872712D1
:1015C00023A4F186B7170000938707EC23A2F186C6
:1015D0000D65411123AA01861305C54506C623A83A
:1015E0000186EFF0AFE1B2402386010C01454101D5
:1015F000B1B783C7910C03C5510C3E9583C7610CED
:101600001D8D83C7810C1D8D42054181828083C75A
:10161000410D4111B76600408DC703D6860283C7CE
:10162000810C13F7E70F3297060736970357070029
:10163000858B2317E1001808BA9703C5E7FF41011E
:10164000828003D6060283C7610CE1BF79714AD05C
:10165000657922D44ECE52CC56CA5AC85EC606D63A
:1016600026D262C466C26AC02A8A2E8485491309BA
:10167000F9FC19ECB250225492540259F249624AD0
:10168000D24A424BB24B224C924C024D4561828071
:1016900083C7410DCDCB83C7510C03C5810C898F06
:1016A000C207C183F9D7A28463F38700BE84376D74
:1016B000004083578D02C204C1803E9542052686B4
:1016C000D2854181213583C7810C058C269ABE9431
:1016D00083C7510C93F4F40F42042384910C41808E
:1016E000E399F4F82384010CA382010C238A010CF2
:1016F00083578DC0139717016357070083578DC019
:1017000093F7070491EFB767004003D787C093169C
:101710001701E3C006F683D787C093F70704B1FB30
:1017200037670040835787C0B377F9002314F7C0A9
:10173000835687C0F1779387F7F8F58F8D66B58F5D
:101740002314F7C03DB783C7910C03C5610C898F83
:10175000C207C18399DFA28463F38700BE84376C1C
:10176000004083570C02C204C1803E954205268684
:10177000D2854181A13B83C7610C058C269ABE941A
:1017800083C7910C93F4F40F42042383910C41809E
:10179000E391F4EE2383010CA384010C238A310D21
:1017A00083578CC0139717016357070083578CC06A
:1017B00093F7070499EFB767004003D787C09316E4
:1017C0001701E3C806EA83D787C093F70704E392BB
:1017D00007EA37670040835787C0B377F90093C79C
:1017E0000704A9B739714AD84ED68547F57922DC66
:1017F00052D456D25AD062CC66CA06DE26DA5ECE03
:101800006AC86EC62A8C2E84A383F10C054B93897B
:10181000F9F815E0F2506254A383010CD2544259F6
:10182000B259225A925A025BF24B624CD24C424D50
:10183000B24D2161828083C7D10C93F7F70FD5CFCA
:1018400083C4E10D9307000493F4F40F139504018E
:101850004181898FC207C183CDDF228663F3870070
:101860003E86376D004083578D03931B060193DB43
:101870000B013E9542055E86E2854181D93633866D
:101880007401330474411376F60F4204238FC10CA4
:101890009307000441805E9CE31DF6F6231ECD02F3
:1018A000A386010C8357CDC0139717016357070018
:1018B0008357CDC093F7070491EFB767004003D774
:1018C000C7C093161701E3C606F483D7C7C093F7C2
:1018D0000704A1F3376700408357C7C0B3F7F90087
:1018E0002316F7C08356C7C0E5779387F7FBF58FBC
:1018F00093C707032316F7C029BF83C4410C93077E
:10190000000493F4F40F139504014181898FC207F9
:10191000C183E38007F0228663F387003E86376D3C
:10192000004083570D03931B060193DB0B013E958B
:1019300042055E86E285418129363386740133048F
:1019400074411376F60F42042382C10C93070004FE
:1019500041805E9CE31FF6EA231ACD02A386610D47
:101960008357CDC013971701635707008357CDC026
:1019700093F7070499EFB767004003D7C7C09316E2
:101980001701E3C806E883D7C7C093F70704E392BB
:1019900007E8376700408357C7C09166B3F7F9007F
:1019A000B58F3DBF2310C5004CC12324050023166D
:1019B0000500828003578500835705006378F7028E
:1019C0000357C5005C41BA972380B7008357C50011
:1019D0000357050085077D17F98F2316F5008357F8
:1019E000850085072314F500054582800145828026
:1019F00083568500AA8795C20356A5005841FD1657
:101A000032970345070003D7070005062394D70044
:101A10007D17718F2395E7008280014582800357EF
:101A2000050083578500B307F74063CAC70803580A
:101A3000C500B3070741C207C1836367F6020323EA
:101A4000450081469398060193D8080163E3F804A2
:101A500083568500198E4296BE954206B697231688
:101A600005002314F500418254410358C500814705
:101A70001397070141836369C7028357C500B29773
:101A80002316F500835785003E962314C5000545AF
:101A90008280B388D50003CE0800B308D8009A9896
:101AA0002380C801850679BF3387F5008348070086
:101AB0003307F800369723001701850755BF014506
:101AC00082801377F500239DA186A381E188935737
:101AD0004500BD8B21812381F1883D89A38CA1869E
:101AE0008280411106C622C426C24AC03714014072
:101AF000A1642E89232A9480AA8537350140EFE01E
:101B00005FB99355890037350140EFE09FB8937571
:101B1000F90F37350140EFE0DFB7B240232894805A
:101B200022449244024941018280011106CE22CC16
:101B300026CA4AC837140140A164232A94802A89FE
:101B4000AA8537350140EFE0DFB4814537350140E4
:101B5000EFE03FB4814537350140EFE09FB30545E5
:101B600023289480BD23CA85232A948037350140D9
:101B7000EFE03FB2814537350140EFE09FB1A3066A
:101B8000A100814537350140EFE0BFB02306A10039
:101B900023289480F24062440355C100D244424954
:101BA00005618280797122D48397A18706D626D2D7
:101BB0004AD04ECE1384A18763D1070683C72188FC
:101BC0001387410EBA9703C50700853783C731884D
:101BD00019476368F7020D678A0713070749BA9721
:101BE0009C43828783D7018863FDA7008357040045
:101BF0000967D98F2310F40029A083D70188E367F0
:101C0000F5FE835704001397270163580700C607A2
:101C1000C5832310F400239F0186835704001967AE
:101C2000F98FD1EFB250225492540259F2494561D2
:101C300082808397018842054185E3D4A7FC7DB764
:101C40008397018842054185E35DF5FA45B783D75F
:101C50000188E398A7FA59BF83D70188E398A7F8CA
:101C60004DB7B387240103C50700C13593578500DD
:101C7000230691002307A1008D4568008504A30673
:101C8000F10093F4F40FB93E83C79187E3EBF4FCC2
:101C90001387E187835707008507C207C183231095
:101CA000F70003D7C187E31FF7F68357040079775E
:101CB0007D17F98F0567D98F2310F400A5B78144EC
:101CC0001389410ED1B7B7170240984F9966397101
:101CD0009386D68106DE22DC26DA4AD84ED652D446
:101CE00056D25AD05ECE558F98CFD84FB7068200C5
:101CF0008506558F37140140D8CF13060020AD4517
:101D000013050480EFE0AFEC13060048AD45130562
:101D10000480EFE0CFEB21668D4513050480EFE0F2
:101D20000FEB13068002AD45130504C0EFE02FEA68
:101D30004146A145130504C0EFE06FE9A167938711
:101D400007482328F480C1472328F4C0A12EF16559
:101D5000374501409385052013050580EFE0FFAE70
:101D600037072000B7E700E023A2E710EFF05F821B
:101D70000D45EFF0AFFC83C4818793F4F40F83C764
:101D8000C10C93F7F70FE5DF373500001305455019
:101D9000CD21EFE00FFDAA853735000013058551F1
:101DA000652EEFE03F83AA853735000013054552C5
:101DB0006526EFE09F84AA8537350000130505539B
:101DC000612EEFE0FF85AA85373500001305C55366
:101DD0006126EFE07F87AA8537350000130585541B
:101DE000A52E37350140C545EFE0DF87B707014035
:101DF000D843C576FD1613671700D8C3D847138597
:101E000001C9758FD8C783A6874093E6060823A427
:101E1000D74083A6C74093E6060823A6D74083A6EB
:101E2000074093E6060823A0D7409306000823AA9C
:101E3000D740B7270000938747BA23A6F184B7E7B6
:101E400000E023A2D710EFE03FA811C5373500000E
:101E5000130545553929EFF0CFF911C53735000085
:101E60001305855839218D698D6A9389C94A138470
:101E7000410E938A8A4DEFF0CFF78D4763F8A704A0
:101E8000EFF0EFF862056185635205046800914543
:101E9000EFF0CFFB8357E1000345D1001397870094
:101EA000A183D98F2315F1008347C10093F7F7076A
:101EB000E9C34D051375F50FA94763E9A7000A05A6
:101EC0004E951C4182870355A100E53EEFF06FF26D
:101ED000854763F9A70CEFF08FF3620561856343D3
:101EE000050C68008945EFF06FF68347C100034594
:101EF000D10093F7F707638307104D051375F50FAE
:101F0000A94763E2A7080A0556951C4182878357B3
:101F1000A100239EF1865DBF8357A1002390F18825
:101F200075B78357A1002382F10E4DB78357A100E7
:101F3000A300F40061BF8357A1002301F40079B727
:101F40008357A100A301F40051B78357A1002302D6
:101F5000F400ADBF8357A100A302F40085BF8357EF
:101F6000A1002303F4009DB78357A100A303F4004D
:101F7000B1BF8355A10013650508A53681BF83D77E
:101F8000A1872315F100FD572306F1008347B10017
:101F9000A306F1008347A1002307F1008D456800E7
:101FA000EFF05F8483C78187E387F4EC03C5818703
:101FB0000D89EFF0AFD883C4818793F4F40F65BD2A
:101FC00083D7C1877DBF83D7018865BF83C7410E93
:101FD0004DBF8347140075B7834724005DB783471F
:101FE000340045B78347440069BF8347540051BF5D
:101FF0008347640079B78347740061B71375F507A9
:102000002D36930700F82306F1009357850023151A
:10201000A100A306F1002307A10049B701A097F191
:10202000FF1F93812184173100201301A1FD171593
:1020300000001305A56297E5FF1F9385A5FC138695
:10204000818163FAC5008322050023A05500110594
:102050009105E3EAC5FE138581819385010F6377BE
:10206000B500232005001105E36DB5FEFD42739018
:1020700002BC8D42739042809302800873900230BC
:1020800097E2FFFF938242F893E23200739052305E
:10209000EFE0CFC297020000938222C37390123404
:1020A00073002030411106C6EFE0CFD2B7177A0097
:1020B000938707203355F502B2401375F50F23833C
:1020C000A1889307803E3305F5022392A188410140
:1020D0008280B7F700E0D8438146799BD8C303C715
:1020E00061883306A70290CBD4CB984313670701CE
:1020F00098C398431367170298C3D843058B75DFBD
:102100009843799B98C38280411122C4931606019B
:102110003284374501402E8613050580C1829385A0
:10212000010A06C6EFE0AFFA2285B240224441011F
:102130008280138781801C439386010F3E95636BD9
:10214000D500B75600209386068063E5A60008C335
:102150003E858280FD57EDBF39713EDA2ED232D4F2
:1021600036D63AD842DC46DE9387C18022CC804303
:1021700026CA06CEAA8409C41C4C99E322851523DD
:102180000C4454102686228536C6EF007016F240A5
:102190006244D24421618280011126CA4AC806CE17
:1021A00022CC4EC652C4AA842E8901C51C4D91E38F
:1021B000CD299C4C804499E32685E52197170000A2
:1021C00093870742631CF402C0408357C400A18B6D
:1021D000B1C71C48A1C7FD59294A1C4483450900C1
:1021E000FD17B1E91CC463DE07062286A9452685D2
:1021F0007120FD576308F502294535A097170000A7
:10220000938707406314F4008044C1B79717000018
:102210009387073BE31BF4FAC04445BFA28526859C
:10222000312A55D97D55F2406244D2444249B249DF
:10223000224A056182801CC4050963D70700184C37
:1022400063CBE700638945011C401387170018C062
:102250002380B70059B7228626850D20E31F35F766
:10226000D1B71C401387170018C029472380E70007
:1022700061B79387C180AA85884339BF011122CCF9
:1022800026CA4AC806CE4EC6AA842E89328401C503
:102290001C4D91E339219717000093876734631928
:1022A000F406C0401C4C1CC48357C400A18BC9C396
:1022B0001C48BDCF1C4808409379F90F1379F90FDA
:1022C0001D8D5C486346F500A2852685652C2DE5AD
:1022D0001C440505FD171CC41C401387170018C0BB
:1022E000238037015C486389A7008357C400858B2E
:1022F00081CBA9476316F900A285268561240DEDDF
:10230000F24062444A85D2444249B2490561828022
:10231000971700009387C72E6314F400804459B7C1
:10232000971700009387C729E31EF4F6C0449DBFAA
:10233000A285268521203DDD7D59D9B7411193879E
:10234000C18026C2844322C44AC006C62A892E847C
:1023500089C49C4C99E32685A9269717000093878A
:102360002728631CF402C0400317C4009317070119
:10237000C18393F68700B5EE93F607019DEEA5475E
:102380002320F900136707042316E4007D55B240AB
:1023900022449244024941018280971700009387AA
:1023A00027266314F4008044C1B797170000938771
:1023B0002721E31BF4FAC04445BF918B8DC74C58CD
:1023C00089C9930744046384F5004A85352B232A81
:1023D00004028357C4002322040093F7B7FD231699
:1023E000F4001C481CC08357C40093E787002316E1
:1023F000F4001C4881EF8357C4001307002093F7B3
:1024000007286385E700A2854A8585218357C40094
:1024100013F7170005C75C4823240400B307F040F6
:102420001CCC1C480145A5F78317C40013F7070807
:1024300039DF93E707042316F40089BF898B01472E
:1024400091E3584818C4F1BF83D7C500011122CCCD
:1024500026CA06CE4AC84EC613F78700AA842E8421
:1024600071EFD841634DE000B841634AE000014597
:10247000F2406244D2444249B249056182805854D4
:102480007DD703A904009396370123A0040063DDE0
:10249000060670488357C400918B99C75C401D8E17
:1024A0005C5899C33C401D8E5C540C508146268577
:1024B0008297FD570357C400631DF5009440F5470C
:1024C00063E8D706B70740208507B3D7D700858BC9
:1024D000A5C31C48232204001CC09317370163D8EE
:1024E0000700FD576314F5009C4091E368C84C5801
:1024F00023A02401ADDD930744046384F500268501
:102500002121232A0402A5B70C50014685462685C1
:102510000297FD572A86E31FF5F69C40A5DF754715
:102520006385E70059476394E70423A0240181B73A
:10253000136707042316E4007D551DBF83A9050119
:10254000E38709F203A905008D8B23A03501330928
:102550003941014791E3D84918C4E35A20F11C548A
:102560000C50CA864E86268582976349A000835701
:10257000C40093E707042316F4007DBFAA9933092A
:10258000A940E1BF9C49B9CF011122CC06CE2A84D3
:1025900011C51C4D81E72EC62922B24597170000B0
:1025A00093870704639BF5004C408397C50095C74C
:1025B00022856244F240056141BD97170000938770
:1025C00027046394F5000C44CDB797170000938758
:1025D00027FFE39CF5FC4C44C9BFF240624401452F
:1025E0000561828001458280411122C406C62A8489
:1025F0002316B5002317C50023200500232205005C
:10260000232405002322050623280500232A05008C
:10261000232C0500214681451305C505EFD05FAE8B
:1026200097170000938787B45CD0971700009387B3
:10263000E7B61CD497170000938727BB5CD4971785
:1026400000009387E7BD00D01CD8B240224441016E
:10265000828097050000938525F3A9A2411126C227
:10266000130680069384F5FFB384C4024AC02E8902
:1026700022C406C693854407252E2A8401CD232033
:10268000050023222501310508C4138684068145EF
:10269000EFD01FA72285B240224492440249410153
:1026A00082801C4DADE3411106C622C4970700008D
:1026B000938767FA1CD5938741819C4323240504A3
:1026C00023260504232805046314F50085471CCD43
:1026D0002A841D2848C02285052808C422852D206B
:1026E00048C4484001469145013708440546A54580
:1026F000E53D48440946C945C53D85471CCCB24027
:10270000224441018280828041119387418126C207
:1027100084434AC006C69C4C22C42A8999E3268574
:102720004937938484048044DC40FD1763D6070056
:102730009C40B9CF8440C5BF0317C40039E7C177B7
:1027400085072322040623200400232204002324D7
:1027500004005CC423280400232A0400232C040062
:10276000214681451305C405EFD09F99232A040211
:10277000232C040223240404232604042285B240CB
:10278000224492440249410182801304840671BFAD
:1027900091454A85E13588C051FDB1472320F900B4
:1027A0000144E9BF797122D44AD052CC56CA5AC8E2
:1027B0005EC606D626D24ECE2A8AAE8A1304850479
:1027C0000149054BFD5B09ECB25022544A859254F5
:1027D0000259F249624AD24A424BB24B4561828069
:1027E000044483294400FD1963D409000040E1BF7B
:1027F00083D7C400637BFB008397E4006387770182
:10280000A6855285829A3369A90093848406E1BF24
:102810001971A6DAAE848395E500A2DC86DE3284E7
:1028200063DC050083D7C40023A0060093F70708E4
:1028300085E7930700401DA0300836C6EF00D0237F
:10284000B246E34105FE7247BD67F98F7977BA97C3
:1028500093B717009CC2F1BF930700041CC0F65049
:102860006654D65401450961828083D7C5000111A1
:1028700022CC06CE26CA4AC8898B2E8489CF9307DC
:1028800074041CC01CC885475CC8F2406244D24432
:1028900042490561828074003000AA84953FA245B8
:1028A0002A892685312201ED8317C40013F70720FA
:1028B00069FFF19B93E727002316F400C9B7970738
:1028C0000000938747D99CD48357C40008C008C828
:1028D00093E707082316F400A2475CC8B24791CFDC
:1028E0008315E4002685EF00D01B01C98357C4007F
:1028F000F19B93E717002316F4008357C400336954
:10290000F9002316240151B7DDC183A7C5FF41118A
:1029100022C406C626C21384C5FF63D307003E94B3
:10292000AA84EF00F01E938781889C4381EF2322C5
:10293000040023A481882244B240268592444101A8
:102940006F00301D637EF40014403307D40063969B
:10295000E7009843DC43369718C05CC0D9BFBA87FC
:10296000D84319C3E37DE4FE94433386D700631F45
:1029700086001040B29694C33386D700E31DC7FA91
:1029800010435843B29694C3D8C375B76375C40057
:10299000B1479CC04DB71040B306C4006316D700C2
:1029A00014435843B29614C058C0C0C369B782805C
:1029B000011126CA93843500F19806CE22CC4AC86C
:1029C0004EC6A104B14763F3F404B14463E2B40416
:1029D0002A89EF00F0139387818898433A8439E07D
:1029E0009387C1889C4391E781454A85892F23A617
:1029F000A188A6854A85A127FD5963193507B147E6
:102A00002320F9004A85EF00D01029A0E3D004FC70
:102A1000B1471CC10145F2406244D2444249B24927
:102A2000056182801C40858F63CF0702AD4663F647
:102A3000F6001CC03E9404C031A05C4063138702C2
:102A400023A4F1884A85EF00D00C1305B400930746
:102A5000440061993307F5405DDF3A94898F1CC0CB
:102A60005DBF5CC3C5B72287404095BF13043500E6
:102A70007198E30285FCB305A4404A85C925E31C8F
:102A800035FBB5BF1C46FD171CC663DA0700184EA0
:102A900063C5E700A9476394F5006FF02FFE1C4261
:102AA0002E851387170018C22380B700828001117A
:102AB00022CC26CA4AC84EC652C406CE2A89AE893E
:102AC0003284B304D6007D5A63149400014509A8EA
:102AD000834504004E864A8575370504E31645FF95
:102AE000F2406244D2444249B249224A056182809E
:102AF000357122CD26CB4AC94EC706CF52C556C323
:102B00005AC1DEDEE2DCE6DAAA89AE843289368496
:102B100009C51C4D99E3EFF0DFB8971700009387C4
:102B200027AC639BF40C83A4490083D7C400A18B1A
:102B3000F5C79C48E5C793070002A304F102930779
:102B4000000302D22305F10222C6930B5002971A0A
:102B50000000938AEAAC054C294B4A848347040061
:102B600099C36390770FB30C2441638D0C00E68604
:102B70004A86A6854E85253FFD576306F51E92566B
:102B8000E69636D283470400638F071CFD5713096E
:102B9000140002C802CE3ECA02CCA309010482D4AA
:102BA0008345090015465685B92713041900C24705
:102BB00059E913F7070109C713070002A309E10444
:102BC00013F7870009C71307B002A309E10483467E
:102BD00009001307A0026380E608F2474A84814691
:102BE00025460347040093051400130707FD637986
:102BF000E60AB5CA3ECE85A897170000938747A07E
:102C00006395F40083A489000DB79717000093879C
:102C1000279BE39CF4F083A4C90001BFA6854E85E1
:102C2000EFF0CFF109D97D55FA406A44DA444A49B8
:102C3000BA492A4A9A4A0A4BF65B665CD65C0D6131
:102C40008280050421BF330555413315AC00C98F7F
:102C50003EC82289B1B7324793064700184336C6AB
:102C6000634907023ACE034704009307E002631F5B
:102C7000F704034714009307A002631BF702B2474F
:102C80000904138747009C433AC663C107023ECA42
:102C900035A83307E04093E727003ACE3EC8E1B7B6
:102CA000B387670385462E84BA9725BFFD57C5B7FE
:102CB000050402CA8146814725460347040093055F
:102CC0001400130707FD6376E606F1F2834504005E
:102CD0000D461715000013052595312D11CD9717B9
:102CE0000000938767941D8D93070004B397A70096
:102CF000424505045D8D2AC8834504001946171511
:102D000000001305A592130914002304B102E52362
:102D10003DC197D7FFFF9387E72E95E74247B2471C
:102D20001377071009CF91073EC69257D2973ED22C
:102D30002DB5B387670385462E84BA97BDBF9D071F
:102D4000E19BA107D5B7780097060000938666D669
:102D500026860C084E8597000000E7000000FD570E
:102D60002A8AE314F5FC83D7C40093F70704E39C95
:102D700007EA125555BD780097060000938666D382
:102D800026860C084E85012AD9BF797156CA9C49FE
:102D9000BA8A984522D426D24ECE52CC06D64AD0F4
:102DA0005AC85EC6AA892E84B284368A63D3E700E5
:102DB000BA879CC00347340419C385079CC01C40D4
:102DC00093F7070281C79C4089079CC00329040030
:102DD00013796900631A0900130B9401FD5B5C44CD
:102DE0009840998F634CF9041C408346340493F750
:102DF0000702B336D000A5EB13063404D2854E8506
:102E0000829AFD576303F5041C4011469840998B44
:102E1000544481446397C700B384E64063D30400FD
:102E200081441C4418486354F700998FBE940149AB
:102E300069047D5B63982405014509A885465A8687
:102E4000D2854E85829A631E75017D55B2502254FB
:102E500092540259F249624AD24A424BB24B4561FE
:102E600082800509ADBF3307D40013060003A30118
:102E7000C7040347540493871600A2978906A381C9
:102E8000E7049DBF85462286D2854E85829AE30E51
:102E900065FB050945B7797122D426D24AD04ECEBA
:102EA00006D652CC56CA5AC8B68983C6850193073E
:102EB00090063289AA842E8413863504638DF60227
:102EC00063E2D706930780056387F61863EDD700A2
:102ED0006380062293073004638EF60A930A240463
:102EE0002301D404C9A0930730066385F60A93072B
:102EF0004006E395F6FE1C40084393F60708930549
:102F00004500C5C61C410CC363D807001307D00297
:102F1000B307F040A301E40497060000938686718E
:102F200029476DA8930700076383F61663E5D70268
:102F30009307E006638AF6189307F006E390F6FA23
:102F40000C401C4313F80508138547006307080667
:102F500008C39C438DA893075007E383F6FE9307AD
:102F60008007638AF61293073007E399F6F61C434D
:102F7000D04181459386470014C383AA0700568534
:102F80009D2E01C53305554148C05C401CC8A301B6
:102F9000040471A81C43930A2404938647009C43AD
:102FA00014C32301F4048547D5B793F607041C41E5
:102FB0000CC3B9DAC207C18781BF93F5050408C302
:102FC000C9D983D707001307F0066387E60E970673
:102FD0000000938626662947A30104044C400CC4D4
:102FE00063C5050008406D9908C099E3B28A91CD88
:102FF000B28AB3F5E702FD1AB69583C505002380B2
:10300000BA00B3D5E70263FFE70AA147631EF700E2
:103010001C40858B91CB58401C4863C7E700930741
:103020000003A38FFAFEFD1A3306564110C84E87DF
:10303000CA867000A2852685893B7D5A631E450B92
:103040007D55B250225492540259F249624AD24AF2
:10305000424B45618280A382D50497060000938687
:10306000665D0C40084313F805081C411105630D0B
:10307000080208C313F7150001C793E505020CC049
:103080004147B9FB0C4093F5F5FD0CC0B1B79C412D
:1030900093E707029CC193078007A302F4049706F5
:1030A00000009386665A75BF13F8050408C3E3034E
:1030B00008FCC207C1837DBF970600009386865730
:1030C000214719BFAE8735B794411C43CC4913F84B
:1030D0000608138547006306080008C39C438CC399
:1030E00001A808C393F606049C43F5DA2390B700C1
:1030F00023280400B28A25BF14485686CA8526852F
:103100008299E30F45F31C40898B8DE7B247484411
:10311000E359F5F23E8535B785465686CA8526853C
:103120008299E30F65F1050A5C443247998FE345C4
:10313000FAFEE9BF014A930A94017D5BF5B741119C
:1031400022C42A842E8523A6010E06C6EFE07FFE48
:10315000FD576317F5009387C10E9C4391C31CC0B4
:10316000B240224441018280411122C42E848395C1
:10317000E50006C64522634905007C48AA977CC83D
:10318000B2402244410182808357C4007D777D177D
:10319000F98F2316F400EDB783D7C500011122CCB7
:1031A00026CA4AC84EC606CE93F70710AA842E84B4
:1031B0003289B68991C78395E50089460146312257
:1031C0008357C4007D777D17F98F2316F40083158C
:1031D000E4006244F240CE864A86B24942492685DE
:1031E000D24405613DA8411122C42E848395E50097
:1031F00006C6E128FD570357C400631BF500FD77A1
:10320000FD17F98F2316F400B24022444101828059
:103210008567D98F2316F40068C8FDB78395E5004C
:1032200005A8411122C42A842E85B285368623A69C
:10323000010E06C6EFE05FEDFD576317F5009387BB
:10324000C10E9C4391C31CC0B24022444101828004
:10325000411122C42A842E8523A6010E06C6CD2044
:10326000FD576317F5009387C10E9C4391C31CC0A3
:10327000B240224441018280411122C42A842E8519
:10328000B28523A6010E06C6D120FD576317F500AF
:103290009387C10E9C4391C31CC0B240224441019C
:1032A0008280411122C42A842E8523A6010E06C6DF
:1032B0006520FD576317F5009387C10E9C4391C3AA
:1032C0001CC0B240224441018280411122C42A84A0
:1032D0002E85B285368623A6010E06C66120FD57CF
:1032E0006317F5009387C10E9C4391C31CC0B24085
:1032F00022444101828093F5F50F2A966314C5009C
:103300000145828083470500E38DB7FE0505FDB7C3
:1033100082808280411122C42A842E85B28536861D
:1033200023A6010E06C6A920FD576317F500938753
:10333000C10E9C4391C31CC0B24022444101828013
:103340009307800523A6F10E7D55828093078005A3
:1033500023A6F10E7D5582809307800523A6F10EEA
:10336000014582809307800523A6F10E7D5582805A
:103370009307800523A6F10E7D5582807011000011
:10338000E61100008A130000801200008A1300007A
:1033900018130000221300008A130000CA13000053
:1033A000E2130000EC130000821100007213000011
:1033B000B2130000BA130000C2130000BA130000D9
:1033C00009024300020100803209040000010202E8
:1033D0000104052400100105240100010424020257
:1033E00005240600010705810310000109040100FE
:1033F000020A0000000705020240000007058302E0
:10340000400000001201100102000008861A0CFEA4
:10341000000101020301A1200000000002000000E1
:10342000160355005300420020005300650072004F
:10343000690061006C00160344004500410044002F
:103440004200450045004600300031000E03770081
:10345000630068002E0063006E000000080010008A
:103460000000400000000000000000000800000014
:103470004000000000000000000000000002000604
:1034800000010001000000000000000000860000B4
:10349000E41B0000FA1B0000321C0000401C00006E
:1034A0004E1C0000581C0000EC1B0000681F0000B0
:1034B0005E1F0000541F00004A1F0000401F000054
:1034C000361F00002C1F0000221F0000181F0000E4
:1034D0000E1F0000C61E0000F61F0000F01F0000B7
:1034E000EA1F0000E41F0000DE1F0000D81F0000DC
:1034F000D21F0000CC1F0000C61F0000C01F00002C
:103500007E1F0000416C6368656D79202D204E613F
:103510006E6F2D464F430000535953434C4B3A2096
:1035200025750A0048434C4B3A2025750A000000D7
:1035300050434C4B313A2025750A000050434C4B08
:10354000323A2025750A0000414443434C4B3A204F
:1035500025750A00546865726520697320736F6D64
:10356000657468696E6720666973687920696E2082
:103570007468652055415254312052582062756656
:103580006665722E2E2E0000546865726520697380
:1035900020736F6D657468696E67206669736879FA
:1035A00020696E207468652043444320525820628D
:1035B00075666665722E2E2E000000000000000069
:1035C00000000000000000000000000000000000FB
:1035D00000000000000000000000000000000000EB
:1035E00000000000000000000000000000000000DB
:1035F00000000000000000000000000000000000CB
:1036000000000000000000000000000000000000BA
:10361000000000000000000000000000232D302BFF
:1036200020000000686C4C00656667454647000056
:1036300030313233343536373839414243444546E8
:1036400000000000303132333435363738396162AA
:083650006364656600000000E0
:1036580000000000DC350000FC350000BC3500002F
:103668000000000000000000000000000000000052
:103678000000000000000000000000000000000042
:103688000000000000000000000000000000000032
:103698000000000000000000000000000000000022
:1036A8000000000000000000000000000000000012
:1036B80048E8010000000800500900200000002030
:0836C8000403090400000020C6
:00000001FF
